{
  "_format": "hh-sol-artifact-1",
  "contractName": "DonorContract",
  "sourceName": "contracts/DonorContract.sol",
  "abi": [
    {
      "inputs": [],
      "stateMutability": "nonpayable",
      "type": "constructor"
    },
    {
      "anonymous": false,
      "inputs": [
        {
          "indexed": true,
          "internalType": "uint256",
          "name": "campaignId",
          "type": "uint256"
        }
      ],
      "name": "CampaignCancelled",
      "type": "event"
    },
    {
      "anonymous": false,
      "inputs": [
        {
          "indexed": true,
          "internalType": "uint256",
          "name": "campaignId",
          "type": "uint256"
        },
        {
          "indexed": true,
          "internalType": "address",
          "name": "creator",
          "type": "address"
        },
        {
          "indexed": false,
          "internalType": "string",
          "name": "name",
          "type": "string"
        },
        {
          "indexed": false,
          "internalType": "uint256",
          "name": "goalAmount",
          "type": "uint256"
        },
        {
          "indexed": false,
          "internalType": "uint256",
          "name": "deadline",
          "type": "uint256"
        }
      ],
      "name": "CampaignCreated",
      "type": "event"
    },
    {
      "anonymous": false,
      "inputs": [
        {
          "indexed": true,
          "internalType": "uint256",
          "name": "campaignId",
          "type": "uint256"
        },
        {
          "indexed": true,
          "internalType": "address",
          "name": "creator",
          "type": "address"
        }
      ],
      "name": "CampaignCreatorRoleGranted",
      "type": "event"
    },
    {
      "anonymous": false,
      "inputs": [
        {
          "indexed": true,
          "internalType": "uint256",
          "name": "campaignId",
          "type": "uint256"
        },
        {
          "indexed": true,
          "internalType": "address",
          "name": "donor",
          "type": "address"
        },
        {
          "indexed": false,
          "internalType": "address",
          "name": "token",
          "type": "address"
        },
        {
          "indexed": false,
          "internalType": "uint256",
          "name": "amount",
          "type": "uint256"
        }
      ],
      "name": "DonationMade",
      "type": "event"
    },
    {
      "anonymous": false,
      "inputs": [
        {
          "indexed": true,
          "internalType": "uint256",
          "name": "campaignId",
          "type": "uint256"
        },
        {
          "indexed": true,
          "internalType": "address",
          "name": "donor",
          "type": "address"
        },
        {
          "indexed": false,
          "internalType": "address",
          "name": "token",
          "type": "address"
        },
        {
          "indexed": false,
          "internalType": "uint256",
          "name": "amount",
          "type": "uint256"
        }
      ],
      "name": "DonationRefunded",
      "type": "event"
    },
    {
      "anonymous": false,
      "inputs": [
        {
          "indexed": true,
          "internalType": "uint256",
          "name": "campaignId",
          "type": "uint256"
        },
        {
          "indexed": true,
          "internalType": "address",
          "name": "creator",
          "type": "address"
        },
        {
          "indexed": false,
          "internalType": "address",
          "name": "token",
          "type": "address"
        },
        {
          "indexed": false,
          "internalType": "uint256",
          "name": "amount",
          "type": "uint256"
        }
      ],
      "name": "FundsWithdrawn",
      "type": "event"
    },
    {
      "anonymous": false,
      "inputs": [
        {
          "indexed": true,
          "internalType": "bytes32",
          "name": "role",
          "type": "bytes32"
        },
        {
          "indexed": true,
          "internalType": "bytes32",
          "name": "previousAdminRole",
          "type": "bytes32"
        },
        {
          "indexed": true,
          "internalType": "bytes32",
          "name": "newAdminRole",
          "type": "bytes32"
        }
      ],
      "name": "RoleAdminChanged",
      "type": "event"
    },
    {
      "anonymous": false,
      "inputs": [
        {
          "indexed": true,
          "internalType": "bytes32",
          "name": "role",
          "type": "bytes32"
        },
        {
          "indexed": true,
          "internalType": "address",
          "name": "account",
          "type": "address"
        },
        {
          "indexed": true,
          "internalType": "address",
          "name": "sender",
          "type": "address"
        }
      ],
      "name": "RoleGranted",
      "type": "event"
    },
    {
      "anonymous": false,
      "inputs": [
        {
          "indexed": true,
          "internalType": "bytes32",
          "name": "role",
          "type": "bytes32"
        },
        {
          "indexed": true,
          "internalType": "address",
          "name": "account",
          "type": "address"
        },
        {
          "indexed": true,
          "internalType": "address",
          "name": "sender",
          "type": "address"
        }
      ],
      "name": "RoleRevoked",
      "type": "event"
    },
    {
      "anonymous": false,
      "inputs": [
        {
          "indexed": true,
          "internalType": "address",
          "name": "token",
          "type": "address"
        },
        {
          "indexed": false,
          "internalType": "bool",
          "name": "allowed",
          "type": "bool"
        }
      ],
      "name": "TokenAllowed",
      "type": "event"
    },
    {
      "inputs": [],
      "name": "CAMPAIGN_CREATOR_ROLE",
      "outputs": [
        {
          "internalType": "bytes32",
          "name": "",
          "type": "bytes32"
        }
      ],
      "stateMutability": "view",
      "type": "function"
    },
    {
      "inputs": [],
      "name": "DEFAULT_ADMIN_ROLE",
      "outputs": [
        {
          "internalType": "bytes32",
          "name": "",
          "type": "bytes32"
        }
      ],
      "stateMutability": "view",
      "type": "function"
    },
    {
      "inputs": [],
      "name": "MAX_CAMPAIGN_DURATION",
      "outputs": [
        {
          "internalType": "uint256",
          "name": "",
          "type": "uint256"
        }
      ],
      "stateMutability": "view",
      "type": "function"
    },
    {
      "inputs": [],
      "name": "TOKEN_MANAGER_ROLE",
      "outputs": [
        {
          "internalType": "bytes32",
          "name": "",
          "type": "bytes32"
        }
      ],
      "stateMutability": "view",
      "type": "function"
    },
    {
      "inputs": [
        {
          "internalType": "address",
          "name": "",
          "type": "address"
        }
      ],
      "name": "allowedTokens",
      "outputs": [
        {
          "internalType": "bool",
          "name": "",
          "type": "bool"
        }
      ],
      "stateMutability": "view",
      "type": "function"
    },
    {
      "inputs": [
        {
          "internalType": "uint256",
          "name": "",
          "type": "uint256"
        },
        {
          "internalType": "uint256",
          "name": "",
          "type": "uint256"
        }
      ],
      "name": "campaignDonationHistory",
      "outputs": [
        {
          "internalType": "address",
          "name": "donor",
          "type": "address"
        },
        {
          "internalType": "uint256",
          "name": "amount",
          "type": "uint256"
        },
        {
          "internalType": "uint256",
          "name": "timestamp",
          "type": "uint256"
        }
      ],
      "stateMutability": "view",
      "type": "function"
    },
    {
      "inputs": [
        {
          "internalType": "uint256",
          "name": "",
          "type": "uint256"
        },
        {
          "internalType": "address",
          "name": "",
          "type": "address"
        }
      ],
      "name": "campaignDonations",
      "outputs": [
        {
          "internalType": "uint256",
          "name": "",
          "type": "uint256"
        }
      ],
      "stateMutability": "view",
      "type": "function"
    },
    {
      "inputs": [
        {
          "internalType": "uint256",
          "name": "",
          "type": "uint256"
        }
      ],
      "name": "campaignObject",
      "outputs": [
        {
          "internalType": "uint256",
          "name": "id",
          "type": "uint256"
        },
        {
          "internalType": "string",
          "name": "name",
          "type": "string"
        },
        {
          "internalType": "string",
          "name": "description",
          "type": "string"
        },
        {
          "internalType": "address",
          "name": "creator",
          "type": "address"
        },
        {
          "internalType": "uint256",
          "name": "goalAmount",
          "type": "uint256"
        },
        {
          "internalType": "uint256",
          "name": "totalDonated",
          "type": "uint256"
        },
        {
          "internalType": "uint256",
          "name": "createdAt",
          "type": "uint256"
        },
        {
          "internalType": "uint256",
          "name": "deadline",
          "type": "uint256"
        },
        {
          "internalType": "bool",
          "name": "active",
          "type": "bool"
        },
        {
          "internalType": "bool",
          "name": "exists",
          "type": "bool"
        },
        {
          "internalType": "bool",
          "name": "funded",
          "type": "bool"
        },
        {
          "internalType": "bool",
          "name": "cancelled",
          "type": "bool"
        }
      ],
      "stateMutability": "view",
      "type": "function"
    },
    {
      "inputs": [
        {
          "internalType": "uint256",
          "name": "",
          "type": "uint256"
        }
      ],
      "name": "campaigns",
      "outputs": [
        {
          "internalType": "uint256",
          "name": "id",
          "type": "uint256"
        },
        {
          "internalType": "string",
          "name": "name",
          "type": "string"
        },
        {
          "internalType": "string",
          "name": "description",
          "type": "string"
        },
        {
          "internalType": "address",
          "name": "creator",
          "type": "address"
        },
        {
          "internalType": "uint256",
          "name": "goalAmount",
          "type": "uint256"
        },
        {
          "internalType": "uint256",
          "name": "totalDonated",
          "type": "uint256"
        },
        {
          "internalType": "uint256",
          "name": "createdAt",
          "type": "uint256"
        },
        {
          "internalType": "uint256",
          "name": "deadline",
          "type": "uint256"
        },
        {
          "internalType": "bool",
          "name": "active",
          "type": "bool"
        },
        {
          "internalType": "bool",
          "name": "exists",
          "type": "bool"
        },
        {
          "internalType": "bool",
          "name": "funded",
          "type": "bool"
        },
        {
          "internalType": "bool",
          "name": "cancelled",
          "type": "bool"
        }
      ],
      "stateMutability": "view",
      "type": "function"
    },
    {
      "inputs": [
        {
          "internalType": "uint256",
          "name": "_campaignId",
          "type": "uint256"
        }
      ],
      "name": "cancelCampaign",
      "outputs": [],
      "stateMutability": "nonpayable",
      "type": "function"
    },
    {
      "inputs": [
        {
          "internalType": "string",
          "name": "_name",
          "type": "string"
        },
        {
          "internalType": "string",
          "name": "_description",
          "type": "string"
        },
        {
          "internalType": "uint256",
          "name": "_goalAmount",
          "type": "uint256"
        },
        {
          "internalType": "uint256",
          "name": "_durationInDays",
          "type": "uint256"
        }
      ],
      "name": "createCampaign",
      "outputs": [
        {
          "internalType": "uint256",
          "name": "",
          "type": "uint256"
        }
      ],
      "stateMutability": "nonpayable",
      "type": "function"
    },
    {
      "inputs": [
        {
          "internalType": "address",
          "name": "token",
          "type": "address"
        },
        {
          "internalType": "uint256",
          "name": "_campaignId",
          "type": "uint256"
        },
        {
          "internalType": "uint256",
          "name": "_amount",
          "type": "uint256"
        }
      ],
      "name": "donateToCampaign",
      "outputs": [
        {
          "internalType": "bool",
          "name": "",
          "type": "bool"
        }
      ],
      "stateMutability": "nonpayable",
      "type": "function"
    },
    {
      "inputs": [
        {
          "internalType": "uint256",
          "name": "",
          "type": "uint256"
        },
        {
          "internalType": "address",
          "name": "",
          "type": "address"
        },
        {
          "internalType": "address",
          "name": "",
          "type": "address"
        }
      ],
      "name": "donorContributions",
      "outputs": [
        {
          "internalType": "uint256",
          "name": "",
          "type": "uint256"
        }
      ],
      "stateMutability": "view",
      "type": "function"
    },
    {
      "inputs": [],
      "name": "getAllCampaigns",
      "outputs": [
        {
          "components": [
            {
              "internalType": "uint256",
              "name": "id",
              "type": "uint256"
            },
            {
              "internalType": "string",
              "name": "name",
              "type": "string"
            },
            {
              "internalType": "string",
              "name": "description",
              "type": "string"
            },
            {
              "internalType": "address",
              "name": "creator",
              "type": "address"
            },
            {
              "internalType": "uint256",
              "name": "goalAmount",
              "type": "uint256"
            },
            {
              "internalType": "uint256",
              "name": "totalDonated",
              "type": "uint256"
            },
            {
              "internalType": "uint256",
              "name": "createdAt",
              "type": "uint256"
            },
            {
              "internalType": "uint256",
              "name": "deadline",
              "type": "uint256"
            },
            {
              "internalType": "bool",
              "name": "active",
              "type": "bool"
            },
            {
              "internalType": "bool",
              "name": "exists",
              "type": "bool"
            },
            {
              "internalType": "bool",
              "name": "funded",
              "type": "bool"
            },
            {
              "internalType": "bool",
              "name": "cancelled",
              "type": "bool"
            }
          ],
          "internalType": "struct DonorContract.Campaign[]",
          "name": "",
          "type": "tuple[]"
        }
      ],
      "stateMutability": "view",
      "type": "function"
    },
    {
      "inputs": [
        {
          "internalType": "uint256",
          "name": "_campaignId",
          "type": "uint256"
        }
      ],
      "name": "getCampaignById",
      "outputs": [
        {
          "components": [
            {
              "internalType": "uint256",
              "name": "id",
              "type": "uint256"
            },
            {
              "internalType": "string",
              "name": "name",
              "type": "string"
            },
            {
              "internalType": "string",
              "name": "description",
              "type": "string"
            },
            {
              "internalType": "address",
              "name": "creator",
              "type": "address"
            },
            {
              "internalType": "uint256",
              "name": "goalAmount",
              "type": "uint256"
            },
            {
              "internalType": "uint256",
              "name": "totalDonated",
              "type": "uint256"
            },
            {
              "internalType": "uint256",
              "name": "createdAt",
              "type": "uint256"
            },
            {
              "internalType": "uint256",
              "name": "deadline",
              "type": "uint256"
            },
            {
              "internalType": "bool",
              "name": "active",
              "type": "bool"
            },
            {
              "internalType": "bool",
              "name": "exists",
              "type": "bool"
            },
            {
              "internalType": "bool",
              "name": "funded",
              "type": "bool"
            },
            {
              "internalType": "bool",
              "name": "cancelled",
              "type": "bool"
            }
          ],
          "internalType": "struct DonorContract.Campaign",
          "name": "",
          "type": "tuple"
        }
      ],
      "stateMutability": "view",
      "type": "function"
    },
    {
      "inputs": [
        {
          "internalType": "uint256",
          "name": "_campaignId",
          "type": "uint256"
        }
      ],
      "name": "getCampaignDonations",
      "outputs": [
        {
          "components": [
            {
              "internalType": "address",
              "name": "donor",
              "type": "address"
            },
            {
              "internalType": "uint256",
              "name": "amount",
              "type": "uint256"
            },
            {
              "internalType": "uint256",
              "name": "timestamp",
              "type": "uint256"
            }
          ],
          "internalType": "struct DonorContract.Donation[]",
          "name": "",
          "type": "tuple[]"
        }
      ],
      "stateMutability": "view",
      "type": "function"
    },
    {
      "inputs": [
        {
          "internalType": "uint256",
          "name": "_campaignId",
          "type": "uint256"
        },
        {
          "internalType": "address",
          "name": "token",
          "type": "address"
        }
      ],
      "name": "getCampaignFundsByToken",
      "outputs": [
        {
          "internalType": "uint256",
          "name": "",
          "type": "uint256"
        }
      ],
      "stateMutability": "view",
      "type": "function"
    },
    {
      "inputs": [
        {
          "internalType": "bytes32",
          "name": "role",
          "type": "bytes32"
        }
      ],
      "name": "getRoleAdmin",
      "outputs": [
        {
          "internalType": "bytes32",
          "name": "",
          "type": "bytes32"
        }
      ],
      "stateMutability": "view",
      "type": "function"
    },
    {
      "inputs": [
        {
          "internalType": "bytes32",
          "name": "role",
          "type": "bytes32"
        },
        {
          "internalType": "uint256",
          "name": "index",
          "type": "uint256"
        }
      ],
      "name": "getRoleMember",
      "outputs": [
        {
          "internalType": "address",
          "name": "",
          "type": "address"
        }
      ],
      "stateMutability": "view",
      "type": "function"
    },
    {
      "inputs": [
        {
          "internalType": "bytes32",
          "name": "role",
          "type": "bytes32"
        }
      ],
      "name": "getRoleMemberCount",
      "outputs": [
        {
          "internalType": "uint256",
          "name": "",
          "type": "uint256"
        }
      ],
      "stateMutability": "view",
      "type": "function"
    },
    {
      "inputs": [
        {
          "internalType": "bytes32",
          "name": "role",
          "type": "bytes32"
        },
        {
          "internalType": "address",
          "name": "account",
          "type": "address"
        }
      ],
      "name": "grantRole",
      "outputs": [],
      "stateMutability": "nonpayable",
      "type": "function"
    },
    {
      "inputs": [
        {
          "internalType": "bytes32",
          "name": "role",
          "type": "bytes32"
        },
        {
          "internalType": "address",
          "name": "account",
          "type": "address"
        }
      ],
      "name": "hasRole",
      "outputs": [
        {
          "internalType": "bool",
          "name": "",
          "type": "bool"
        }
      ],
      "stateMutability": "view",
      "type": "function"
    },
    {
      "inputs": [
        {
          "internalType": "uint256",
          "name": "_campaignId",
          "type": "uint256"
        }
      ],
      "name": "isCampaignSuccessful",
      "outputs": [
        {
          "internalType": "bool",
          "name": "",
          "type": "bool"
        }
      ],
      "stateMutability": "view",
      "type": "function"
    },
    {
      "inputs": [
        {
          "internalType": "uint256",
          "name": "_campaignId",
          "type": "uint256"
        },
        {
          "internalType": "address",
          "name": "token",
          "type": "address"
        }
      ],
      "name": "refundDonation",
      "outputs": [],
      "stateMutability": "nonpayable",
      "type": "function"
    },
    {
      "inputs": [
        {
          "internalType": "bytes32",
          "name": "role",
          "type": "bytes32"
        },
        {
          "internalType": "address",
          "name": "account",
          "type": "address"
        }
      ],
      "name": "renounceRole",
      "outputs": [],
      "stateMutability": "nonpayable",
      "type": "function"
    },
    {
      "inputs": [
        {
          "internalType": "bytes32",
          "name": "role",
          "type": "bytes32"
        },
        {
          "internalType": "address",
          "name": "account",
          "type": "address"
        }
      ],
      "name": "revokeRole",
      "outputs": [],
      "stateMutability": "nonpayable",
      "type": "function"
    },
    {
      "inputs": [
        {
          "internalType": "address",
          "name": "token",
          "type": "address"
        },
        {
          "internalType": "bool",
          "name": "allowed",
          "type": "bool"
        }
      ],
      "name": "setAllowedToken",
      "outputs": [],
      "stateMutability": "nonpayable",
      "type": "function"
    },
    {
      "inputs": [
        {
          "internalType": "bytes4",
          "name": "interfaceId",
          "type": "bytes4"
        }
      ],
      "name": "supportsInterface",
      "outputs": [
        {
          "internalType": "bool",
          "name": "",
          "type": "bool"
        }
      ],
      "stateMutability": "view",
      "type": "function"
    },
    {
      "inputs": [
        {
          "internalType": "uint256",
          "name": "",
          "type": "uint256"
        },
        {
          "internalType": "address",
          "name": "",
          "type": "address"
        }
      ],
      "name": "tokenWithdrawn",
      "outputs": [
        {
          "internalType": "bool",
          "name": "",
          "type": "bool"
        }
      ],
      "stateMutability": "view",
      "type": "function"
    },
    {
      "inputs": [
        {
          "internalType": "address",
          "name": "token",
          "type": "address"
        },
        {
          "internalType": "uint256",
          "name": "_campaignId",
          "type": "uint256"
        }
      ],
      "name": "withdrawFunds",
      "outputs": [],
      "stateMutability": "nonpayable",
      "type": "function"
    }
  ],
  "bytecode": "0x6080604052600160035534801561001557600080fd5b50600160009081556100279033610056565b6100517f74f7a545c65c11839a48d7453738b30c295408df2d944516167556759ddc6d0633610056565b610172565b610060828261007d565b60008281526002602052604090206100789082610105565b505050565b60008281526001602090815260408083206001600160a01b038516845290915290205460ff166101015760008281526001602081815260408084206001600160a01b0386168086529252808420805460ff19169093179092559051339285917f2f8788117e7eff1d82e926ec794901d17c78024a50270940304540a733656f0d9190a45b5050565b600061011a836001600160a01b038416610123565b90505b92915050565b600081815260018301602052604081205461016a5750815460018181018455600084815260208082209093018490558454848252828601909352604090209190915561011d565b50600061011d565b6131cf806101816000396000f3fe608060405234801561001057600080fd5b50600436106101da5760003560e01c80638c7bc83811610104578063c1075329116100a2578063d547741f11610071578063d547741f146104cd578063d567f1ae146104e0578063e6ffcaa1146104f3578063e744092e1461051357600080fd5b8063c107532914610459578063c2840e601461046c578063c7fe4e5414610493578063ca15c873146104ba57600080fd5b8063a217fddf116100de578063a217fddf146103d8578063a318f269146103e0578063afbbc685146103f3578063bbb858f91461042b57600080fd5b80638c7bc8381461038f5780639010d07c1461039a57806391d14854146103c557600080fd5b806345598b4a1161017c5780637f5d25ed1161014b5780637f5d25ed1461032357806384fdb39f1461035457806386cdf604146103675780638aaa22841461037c57600080fd5b806345598b4a146102b25780635167642f146102c5578063564a7ac1146102e55780635a3915cd1461031057600080fd5b8063248a9ca3116101b8578063248a9ca3146102455780632f2ff15d1461027757806336568abe1461028c57806338e7a8131461029f57600080fd5b806301ffc9a7146101df57806306db57bb14610207578063141961bc1461021a575b600080fd5b6101f26101ed366004612925565b610536565b60405190151581526020015b60405180910390f35b6101f261021536600461294f565b610561565b61022d61022836600461294f565b610784565b6040516101fe9c9b9a999897969594939291906129b8565b61026961025336600461294f565b6000908152600160208190526040909120015490565b6040519081526020016101fe565b61028a610285366004612a65565b61091a565b005b61028a61029a366004612a65565b610945565b61022d6102ad36600461294f565b6109c3565b61028a6102c036600461294f565b6109e5565b6102d86102d336600461294f565b610b84565b6040516101fe9190612a91565b6102696102f3366004612a65565b600560209081526000928352604080842090915290825290205481565b6101f261031e366004612af6565b610c46565b610269610331366004612b29565b600860209081526000938452604080852082529284528284209052825290205481565b61028a610362366004612a65565b61100c565b61036f6111aa565b6040516101fe9190612c44565b61028a61038a366004612cb7565b6113b8565b6102696301e1338081565b6103ad6103a8366004612cee565b611442565b6040516001600160a01b0390911681526020016101fe565b6101f26103d3366004612a65565b61145a565b610269600081565b6102696103ee366004612db5565b611485565b610406610401366004612cee565b6119ad565b604080516001600160a01b0390941684526020840192909252908201526060016101fe565b6101f2610439366004612a65565b600960209081526000928352604080842090915290825290205460ff1681565b61028a610467366004612e2e565b6119f9565b6102697f74f7a545c65c11839a48d7453738b30c295408df2d944516167556759ddc6d0681565b6102697faabecfdf6c789f9fb8a93bd3a33e66be61c9d95c3d88fbe57f4acd20b6d738f881565b6102696104c836600461294f565b611e13565b61028a6104db366004612a65565b611e2a565b6102696104ee366004612a65565b611e50565b61050661050136600461294f565b611eaf565b6040516101fe9190612e58565b6101f2610521366004612e6b565b60066020526000908152604090205460ff1681565b60006001600160e01b03198216635a05180f60e01b148061055b575061055b82612128565b92915050565b600081815260046020526040812060080154610100900460ff166105a05760405162461bcd60e51b815260040161059790612e86565b60405180910390fd5b60006004600084815260200190815260200160002060405180610180016040529081600082015481526020016001820180546105db90612ebd565b80601f016020809104026020016040519081016040528092919081815260200182805461060790612ebd565b80156106545780601f1061062957610100808354040283529160200191610654565b820191906000526020600020905b81548152906001019060200180831161063757829003601f168201915b5050505050815260200160028201805461066d90612ebd565b80601f016020809104026020016040519081016040528092919081815260200182805461069990612ebd565b80156106e65780601f106106bb576101008083540402835291602001916106e6565b820191906000526020600020905b8154815290600101906020018083116106c957829003601f168201915b505050918352505060038201546001600160a01b0316602082015260048201546040820152600582015460608201526006820154608080830191909152600783015460a08084019190915260089093015460ff808216151560c08501526101008083048216151560e0860152620100008304821615159085015263010000009091041615156101209092019190915282015191015110159392505050565b600a818154811061079457600080fd5b600091825260209091206009909102018054600182018054919350906107b990612ebd565b80601f01602080910402602001604051908101604052809291908181526020018280546107e590612ebd565b80156108325780601f1061080757610100808354040283529160200191610832565b820191906000526020600020905b81548152906001019060200180831161081557829003601f168201915b50505050509080600201805461084790612ebd565b80601f016020809104026020016040519081016040528092919081815260200182805461087390612ebd565b80156108c05780601f10610895576101008083540402835291602001916108c0565b820191906000526020600020905b8154815290600101906020018083116108a357829003601f168201915b5050506003840154600485015460058601546006870154600788015460089098015496976001600160a01b0390941696929550909350919060ff80821691610100810482169162010000820481169163010000009004168c565b600082815260016020819052604090912001546109368161215d565b610940838361216a565b505050565b6001600160a01b03811633146109b55760405162461bcd60e51b815260206004820152602f60248201527f416363657373436f6e74726f6c3a2063616e206f6e6c792072656e6f756e636560448201526e103937b632b9903337b91039b2b63360891b6064820152608401610597565b6109bf828261218c565b5050565b600460205260009081526040902080546001820180549192916107b990612ebd565b60008181526004602052604090206008810154610100900460ff16610a1c5760405162461bcd60e51b815260040161059790612e86565b60038101546001600160a01b0316331480610a3d5750610a3d60003361145a565b610a895760405162461bcd60e51b815260206004820152601860248201527f4e6f7420617574686f72697a656420746f2063616e63656c00000000000000006044820152606401610597565b600881015462010000900460ff1615610ae45760405162461bcd60e51b815260206004820152601760248201527f43616d706169676e20616c72656164792066756e6465640000000000000000006044820152606401610597565b60088101546301000000900460ff1615610b405760405162461bcd60e51b815260206004820152601a60248201527f43616d706169676e20616c72656164792063616e63656c6c65640000000000006044820152606401610597565b60088101805463ff0000ff1916630100000017905560405182907f403b6718db13878ac16c27decb08f09d3a10f116c7c25af575ff5bfbc11ae9e690600090a25050565b600081815260046020526040902060080154606090610100900460ff16610bbd5760405162461bcd60e51b815260040161059790612e86565b600082815260076020908152604080832080548251818502810185019093528083529193909284015b82821015610c3b576000848152602090819020604080516060810182526003860290920180546001600160a01b0316835260018082015484860152600290910154918301919091529083529092019101610be6565b505050509050919050565b6000610c506121ae565b6001600160a01b03841660009081526006602052604090205460ff16610cae5760405162461bcd60e51b8152602060048201526013602482015272151bdad95b881b9bdd081cdd5c1c1bdc9d1959606a1b6044820152606401610597565b600083815260046020526040902060080154610100900460ff16610ce45760405162461bcd60e51b815260040161059790612e86565b60008211610d465760405162461bcd60e51b815260206004820152602960248201527f446f6e6174696f6e20616d6f756e74206d7573742062652067726561746572206044820152687468616e207a65726f60b81b6064820152608401610597565b60008381526004602052604090206008015460ff16610da05760405162461bcd60e51b815260206004820152601660248201527543616d706169676e206973206e6f742061637469766560501b6044820152606401610597565b6000838152600460205260409020600801546301000000900460ff1615610e015760405162461bcd60e51b815260206004820152601560248201527410d85b5c185a59db881a5cc818d85b98d95b1b1959605a1b6044820152606401610597565b600083815260046020526040902060070154421115610e575760405162461bcd60e51b815260206004820152601260248201527110d85b5c185a59db881a185cc8195b99195960721b6044820152606401610597565b610e6c6001600160a01b038516333085612207565b60008381526004602052604081206005018054849290610e8d908490612f0d565b909155505060008381526005602090815260408083206001600160a01b038816845290915281208054849290610ec4908490612f0d565b90915550600090505b600a54811015610f495783600a8281548110610eeb57610eeb612f20565b90600052602060002090600902016000015403610f415782600a8281548110610f1657610f16612f20565b90600052602060002090600902016005016000828254610f369190612f0d565b90915550610f499050565b600101610ecd565b50600083815260076020908152604080832081516060810183523380825281850188815242838601908152845460018082018755958952978790209351600390980290930180546001600160a01b0319166001600160a01b03988916178155905193810193909355905160029092019190915581519388168452918301859052909185917f72ea702afc24965f735ac4ac552f859b352084ad99f47a425a691630814014fe910160405180910390a35060016110056001600055565b9392505050565b6110146121ae565b600082815260046020526040902060088101546301000000900460ff1661107d5760405162461bcd60e51b815260206004820152601960248201527f43616d706169676e206973206e6f742063616e63656c6c6564000000000000006044820152606401610597565b600083815260086020908152604080832033845282528083206001600160a01b0386168452909152902054806110ed5760405162461bcd60e51b8152602060048201526015602482015274139bc8191bdb985d1a5bdb881d1bc81c99599d5b99605a1b6044820152606401610597565b600084815260086020908152604080832033845282528083206001600160a01b038716808552908352818420849055878452600583528184209084529091528120805483929061113e908490612f36565b9091555061115890506001600160a01b0384163383612278565b604080516001600160a01b038516815260208101839052339186917f0871598c62fbea849824d5895fc3129036798cca146dbf42e3284d97c284597f910160405180910390a350506109bf6001600055565b6060600a805480602002602001604051908101604052809291908181526020016000905b828210156113af5783829060005260206000209060090201604051806101800160405290816000820154815260200160018201805461120c90612ebd565b80601f016020809104026020016040519081016040528092919081815260200182805461123890612ebd565b80156112855780601f1061125a57610100808354040283529160200191611285565b820191906000526020600020905b81548152906001019060200180831161126857829003601f168201915b5050505050815260200160028201805461129e90612ebd565b80601f01602080910402602001604051908101604052809291908181526020018280546112ca90612ebd565b80156113175780601f106112ec57610100808354040283529160200191611317565b820191906000526020600020905b8154815290600101906020018083116112fa57829003601f168201915b505050918352505060038201546001600160a01b0316602080830191909152600483015460408301526005830154606083015260068301546080830152600783015460a083015260089092015460ff808216151560c08401526101008083048216151560e0850152620100008304821615159084015263010000009091041615156101209091015290825260019290920191016111ce565b50505050905090565b7f74f7a545c65c11839a48d7453738b30c295408df2d944516167556759ddc6d066113e28161215d565b6001600160a01b038316600081815260066020908152604091829020805460ff191686151590811790915591519182527f9a8e30a8658b96ab3f034ce4bac6806278b4aee5880ccdd1ac35e4ed5bb31d23910160405180910390a2505050565b600082815260026020526040812061100590836122a8565b60009182526001602090815260408084206001600160a01b0393909316845291905290205460ff1690565b6000808551116114ce5760405162461bcd60e51b81526020600482015260146024820152734e616d652063616e6e6f7420626520656d70747960601b6044820152606401610597565b6000831161152c5760405162461bcd60e51b815260206004820152602560248201527f476f616c20616d6f756e74206d7573742062652067726561746572207468616e604482015264207a65726f60d81b6064820152608401610597565b60008211801561153e575061016d8211155b61157d5760405162461bcd60e51b815260206004820152601060248201526f24b73b30b634b210323ab930ba34b7b760811b6044820152606401610597565b600354600081815260046020526040902060080154610100900460ff16156115e75760405162461bcd60e51b815260206004820152601760248201527f43616d706169676e20616c7265616479206578697374730000000000000000006044820152606401610597565b60006115f68462015180612f49565b6116009042612f0d565b90506116106301e1338042612f0d565b8111156116535760405162461bcd60e51b81526020600482015260116024820152704475726174696f6e20746f6f206c6f6e6760781b6044820152606401610597565b604080516101808101825283815260208082018a81528284018a905233606084015260808301899052600060a084018190524260c085015260e08401869052600161010085018190526101208501819052610140850182905261016085018290528782526004909352939093208251815592519192839290918201906116d99082612fae565b50604082015160028201906116ee9082612fae565b5060608201516003820180546001600160a01b0319166001600160a01b039092169190911790556080820151600482015560a0820151600582015560c0820151600682015560e0820151600782015561010080830151600890920180546101208501516101408601516101609096015161ffff1990921694151561ff001916949094179315159092029290921763ffff00001916620100009315159390930263ff000000191692909217630100000092151592909202919091179055600a805460018101825560009190915281517fc65a7bb8d6351c1cf70c95a316cc6a92839c986682d98bc35f958f4883f9d2a86009909202918201908155602083015183927fc65a7bb8d6351c1cf70c95a316cc6a92839c986682d98bc35f958f4883f9d2a9019061181c9082612fae565b50604082015160028201906118319082612fae565b5060608201516003820180546001600160a01b0319166001600160a01b039092169190911790556080820151600482015560a0820151600582015560c0820151600682015560e0820151600782015561010080830151600890920180546101208501516101408601516101609096015161ffff1990921694151561ff001916949094179315159092029290921763ffff00001916620100009315159390930263ff0000001916929092176301000000921515929092029190911790556119177faabecfdf6c789f9fb8a93bd3a33e66be61c9d95c3d88fbe57f4acd20b6d738f83361216a565b604051339084907f883479554ab3934aa8f7a2a39a33bbf02dad4d1ba4544a7ac9bae6d0537ed57d90600090a3336001600160a01b0316837fdc26653af5b99b2da33e2ad69ee6600d9aeccc82b034501db4338309615ca2388a89866040516119829392919061306d565b60405180910390a36003805490600061199a83613092565b909155509293505050505b949350505050565b600760205281600052604060002081815481106119c957600080fd5b60009182526020909120600390910201805460018201546002909201546001600160a01b03909116935090915083565b611a016121ae565b60008181526004602052604090206008810154610100900460ff16611a385760405162461bcd60e51b815260040161059790612e86565b60038101546001600160a01b03163314611a945760405162461bcd60e51b815260206004820152601960248201527f4f6e6c792063726561746f722063616e207769746864726177000000000000006044820152606401610597565b600881015460ff16611ae15760405162461bcd60e51b815260206004820152601660248201527543616d706169676e206973206e6f742061637469766560501b6044820152606401610597565b600881015462010000900460ff1615611b3c5760405162461bcd60e51b815260206004820152601760248201527f46756e647320616c72656164792077697468647261776e0000000000000000006044820152606401610597565b60088101546301000000900460ff1615611b905760405162461bcd60e51b815260206004820152601560248201527410d85b5c185a59db881a5cc818d85b98d95b1b1959605a1b6044820152606401610597565b611bba7faabecfdf6c789f9fb8a93bd3a33e66be61c9d95c3d88fbe57f4acd20b6d738f83361145a565b611bf75760405162461bcd60e51b815260206004820152600e60248201526d139bdd08185d5d1a1bdc9a5e995960921b6044820152606401610597565b60008281526009602090815260408083206001600160a01b038716845290915290205460ff1615611c6a5760405162461bcd60e51b815260206004820152601760248201527f546f6b656e20616c72656164792077697468647261776e0000000000000000006044820152606401610597565b600081600401548260050154101590506000826007015442118015611c93575060008360050154115b90508180611c9e5750805b611ce05760405162461bcd60e51b815260206004820152601360248201527210d85b9b9bdd081dda5d1a191c985dc81e595d606a1b6044820152606401610597565b60008481526005602090815260408083206001600160a01b038916845290915290205480611d5c5760405162461bcd60e51b815260206004820152602360248201527f4e6f2066756e647320746f20776974686472617720666f72207468697320746f60448201526235b2b760e91b6064820152608401610597565b60008581526009602090815260408083206001600160a01b038a16808552908352818420805460ff191660011790558884526005835281842081855290925282209190915560088501805462ff00ff191662010000179055611dbf903383612278565b604080516001600160a01b038816815260208101839052339187917f9467881c16409d70790ef2aa073424972ede02854453f7ff5036d66e860ee42f910160405180910390a3505050506109bf6001600055565b600081815260026020526040812061055b906122b4565b60008281526001602081905260409091200154611e468161215d565b610940838361218c565b600082815260046020526040812060080154610100900460ff16611e865760405162461bcd60e51b815260040161059790612e86565b5060009182526005602090815260408084206001600160a01b0393909316845291905290205490565b611f2460405180610180016040528060008152602001606081526020016060815260200160006001600160a01b03168152602001600081526020016000815260200160008152602001600081526020016000151581526020016000151581526020016000151581526020016000151581525090565b600082815260046020526040902060080154610100900460ff16611f5a5760405162461bcd60e51b815260040161059790612e86565b600460008381526020019081526020016000206040518061018001604052908160008201548152602001600182018054611f9390612ebd565b80601f0160208091040260200160405190810160405280929190818152602001828054611fbf90612ebd565b801561200c5780601f10611fe15761010080835404028352916020019161200c565b820191906000526020600020905b815481529060010190602001808311611fef57829003601f168201915b5050505050815260200160028201805461202590612ebd565b80601f016020809104026020016040519081016040528092919081815260200182805461205190612ebd565b801561209e5780601f106120735761010080835404028352916020019161209e565b820191906000526020600020905b81548152906001019060200180831161208157829003601f168201915b505050918352505060038201546001600160a01b03166020820152600482015460408201526005820154606082015260068201546080820152600782015460a082015260089091015460ff808216151560c08401526101008083048216151560e0850152620100008304821615159084015263010000009091041615156101209091015292915050565b60006001600160e01b03198216637965db0b60e01b148061055b57506301ffc9a760e01b6001600160e01b031983161461055b565b61216781336122be565b50565b6121748282612317565b60008281526002602052604090206109409082612382565b6121968282612397565b600082815260026020526040902061094090826123fe565b6002600054036122005760405162461bcd60e51b815260206004820152601f60248201527f5265656e7472616e637947756172643a207265656e7472616e742063616c6c006044820152606401610597565b6002600055565b6040516001600160a01b03808516602483015283166044820152606481018290526122729085906323b872dd60e01b906084015b60408051601f198184030181529190526020810180516001600160e01b03166001600160e01b031990931692909217909152612413565b50505050565b6040516001600160a01b03831660248201526044810182905261094090849063a9059cbb60e01b9060640161223b565b600061100583836124e8565b600061055b825490565b6122c8828261145a565b6109bf576122d581612512565b6122e0836020612524565b6040516020016122f19291906130ab565b60408051601f198184030181529082905262461bcd60e51b825261059791600401613120565b612321828261145a565b6109bf5760008281526001602081815260408084206001600160a01b0386168086529252808420805460ff19169093179092559051339285917f2f8788117e7eff1d82e926ec794901d17c78024a50270940304540a733656f0d9190a45050565b6000611005836001600160a01b0384166126c0565b6123a1828261145a565b156109bf5760008281526001602090815260408083206001600160a01b0385168085529252808320805460ff1916905551339285917ff6391f5c32d9c69d2a47ea670b442974b53935d1edc7fd64eb21e047a839171b9190a45050565b6000611005836001600160a01b03841661270f565b6000612468826040518060400160405280602081526020017f5361666545524332303a206c6f772d6c6576656c2063616c6c206661696c6564815250856001600160a01b03166128029092919063ffffffff16565b90508051600014806124895750808060200190518101906124899190613133565b6109405760405162461bcd60e51b815260206004820152602a60248201527f5361666545524332303a204552433230206f7065726174696f6e20646964206e6044820152691bdd081cdd58d8d9595960b21b6064820152608401610597565b60008260000182815481106124ff576124ff612f20565b9060005260206000200154905092915050565b606061055b6001600160a01b03831660145b60606000612533836002612f49565b61253e906002612f0d565b67ffffffffffffffff81111561255657612556612d10565b6040519080825280601f01601f191660200182016040528015612580576020820181803683370190505b509050600360fc1b8160008151811061259b5761259b612f20565b60200101906001600160f81b031916908160001a905350600f60fb1b816001815181106125ca576125ca612f20565b60200101906001600160f81b031916908160001a90535060006125ee846002612f49565b6125f9906001612f0d565b90505b6001811115612671576f181899199a1a9b1b9c1cb0b131b232b360811b85600f166010811061262d5761262d612f20565b1a60f81b82828151811061264357612643612f20565b60200101906001600160f81b031916908160001a90535060049490941c9361266a81613150565b90506125fc565b5083156110055760405162461bcd60e51b815260206004820181905260248201527f537472696e67733a20686578206c656e67746820696e73756666696369656e746044820152606401610597565b60008181526001830160205260408120546127075750815460018181018455600084815260208082209093018490558454848252828601909352604090209190915561055b565b50600061055b565b600081815260018301602052604081205480156127f8576000612733600183612f36565b855490915060009061274790600190612f36565b90508181146127ac57600086600001828154811061276757612767612f20565b906000526020600020015490508087600001848154811061278a5761278a612f20565b6000918252602080832090910192909255918252600188019052604090208390555b85548690806127bd576127bd613167565b60019003818190600052602060002001600090559055856001016000868152602001908152602001600020600090556001935050505061055b565b600091505061055b565b60606119a5848460008585600080866001600160a01b03168587604051612829919061317d565b60006040518083038185875af1925050503d8060008114612866576040519150601f19603f3d011682016040523d82523d6000602084013e61286b565b606091505b509150915061287c87838387612887565b979650505050505050565b606083156128f65782516000036128ef576001600160a01b0385163b6128ef5760405162461bcd60e51b815260206004820152601d60248201527f416464726573733a2063616c6c20746f206e6f6e2d636f6e74726163740000006044820152606401610597565b50816119a5565b6119a5838381511561290b5781518083602001fd5b8060405162461bcd60e51b81526004016105979190613120565b60006020828403121561293757600080fd5b81356001600160e01b03198116811461100557600080fd5b60006020828403121561296157600080fd5b5035919050565b60005b8381101561298357818101518382015260200161296b565b50506000910152565b600081518084526129a4816020860160208601612968565b601f01601f19169290920160200192915050565b8c8152610180602082015260006129d361018083018e61298c565b82810360408401526129e5818e61298c565b91505060018060a01b038b1660608301528960808301528860a08301528760c08301528660e0830152851515610100830152841515610120830152612a2f61014083018515159052565b8215156101608301529d9c50505050505050505050505050565b80356001600160a01b0381168114612a6057600080fd5b919050565b60008060408385031215612a7857600080fd5b82359150612a8860208401612a49565b90509250929050565b602080825282518282018190526000918401906040840190835b81811015612aeb57835180516001600160a01b03168452602080820151818601526040918201519185019190915290930192606090920191600101612aab565b509095945050505050565b600080600060608486031215612b0b57600080fd5b612b1484612a49565b95602085013595506040909401359392505050565b600080600060608486031215612b3e57600080fd5b83359250612b4e60208501612a49565b9150612b5c60408501612a49565b90509250925092565b80518252600060208201516101806020850152612b8661018085018261298c565b905060408301518482036040860152612b9f828261298c565b9150506060830151612bbc60608601826001600160a01b03169052565b506080830151608085015260a083015160a085015260c083015160c085015260e083015160e0850152610100830151612bfa61010086018215159052565b50610120830151612c1061012086018215159052565b50610140830151612c2661014086018215159052565b50610160830151612c3c61016086018215159052565b509392505050565b6000602082016020835280845180835260408501915060408160051b86010192506020860160005b82811015612c9d57603f19878603018452612c88858351612b65565b94506020938401939190910190600101612c6c565b50929695505050505050565b801515811461216757600080fd5b60008060408385031215612cca57600080fd5b612cd383612a49565b91506020830135612ce381612ca9565b809150509250929050565b60008060408385031215612d0157600080fd5b50508035926020909101359150565b634e487b7160e01b600052604160045260246000fd5b600082601f830112612d3757600080fd5b813567ffffffffffffffff811115612d5157612d51612d10565b604051601f8201601f19908116603f0116810167ffffffffffffffff81118282101715612d8057612d80612d10565b604052818152838201602001851015612d9857600080fd5b816020850160208301376000918101602001919091529392505050565b60008060008060808587031215612dcb57600080fd5b843567ffffffffffffffff811115612de257600080fd5b612dee87828801612d26565b945050602085013567ffffffffffffffff811115612e0b57600080fd5b612e1787828801612d26565b949794965050505060408301359260600135919050565b60008060408385031215612e4157600080fd5b612e4a83612a49565b946020939093013593505050565b6020815260006110056020830184612b65565b600060208284031215612e7d57600080fd5b61100582612a49565b60208082526017908201527f43616d706169676e20646f6573206e6f74206578697374000000000000000000604082015260600190565b600181811c90821680612ed157607f821691505b602082108103612ef157634e487b7160e01b600052602260045260246000fd5b50919050565b634e487b7160e01b600052601160045260246000fd5b8082018082111561055b5761055b612ef7565b634e487b7160e01b600052603260045260246000fd5b8181038181111561055b5761055b612ef7565b808202811582820484141761055b5761055b612ef7565b601f82111561094057806000526020600020601f840160051c81016020851015612f875750805b601f840160051c820191505b81811015612fa75760008155600101612f93565b5050505050565b815167ffffffffffffffff811115612fc857612fc8612d10565b612fdc81612fd68454612ebd565b84612f60565b6020601f8211600181146130105760008315612ff85750848201515b600019600385901b1c1916600184901b178455612fa7565b600084815260208120601f198516915b828110156130405787850151825560209485019460019092019101613020565b508482101561305e5786840151600019600387901b60f8161c191681555b50505050600190811b01905550565b606081526000613080606083018661298c565b60208301949094525060400152919050565b6000600182016130a4576130a4612ef7565b5060010190565b7f416363657373436f6e74726f6c3a206163636f756e74200000000000000000008152600083516130e3816017850160208801612968565b7001034b99036b4b9b9b4b733903937b6329607d1b6017918401918201528351613114816028840160208801612968565b01602801949350505050565b602081526000611005602083018461298c565b60006020828403121561314557600080fd5b815161100581612ca9565b60008161315f5761315f612ef7565b506000190190565b634e487b7160e01b600052603160045260246000fd5b6000825161318f818460208701612968565b919091019291505056fea2646970667358221220fe03edb89194b772b88bfeeaefe1aaf2c24d3019be495b35a6e88f6b4122fc2664736f6c634300081b0033",
  "linkReferences": {},
  "deployedLinkReferences": {}
}