{
  "_format": "hh-sol-artifact-1",
  "contractName": "DonorContract",
  "sourceName": "contracts/DonorContract.sol",
  "abi": [
    {
      "inputs": [],
      "stateMutability": "nonpayable",
      "type": "constructor"
    },
    {
      "anonymous": false,
      "inputs": [
        {
          "indexed": true,
          "internalType": "uint256",
          "name": "campaignId",
          "type": "uint256"
        }
      ],
      "name": "CampaignCancelled",
      "type": "event"
    },
    {
      "anonymous": false,
      "inputs": [
        {
          "indexed": true,
          "internalType": "uint256",
          "name": "campaignId",
          "type": "uint256"
        },
        {
          "indexed": true,
          "internalType": "address",
          "name": "creator",
          "type": "address"
        },
        {
          "indexed": false,
          "internalType": "string",
          "name": "name",
          "type": "string"
        },
        {
          "indexed": false,
          "internalType": "uint256",
          "name": "goalAmount",
          "type": "uint256"
        },
        {
          "indexed": false,
          "internalType": "uint256",
          "name": "deadline",
          "type": "uint256"
        }
      ],
      "name": "CampaignCreated",
      "type": "event"
    },
    {
      "anonymous": false,
      "inputs": [
        {
          "indexed": true,
          "internalType": "uint256",
          "name": "campaignId",
          "type": "uint256"
        },
        {
          "indexed": true,
          "internalType": "address",
          "name": "creator",
          "type": "address"
        }
      ],
      "name": "CampaignCreatorRoleGranted",
      "type": "event"
    },
    {
      "anonymous": false,
      "inputs": [
        {
          "indexed": true,
          "internalType": "uint256",
          "name": "campaignId",
          "type": "uint256"
        },
        {
          "indexed": true,
          "internalType": "address",
          "name": "donor",
          "type": "address"
        },
        {
          "indexed": false,
          "internalType": "address",
          "name": "token",
          "type": "address"
        },
        {
          "indexed": false,
          "internalType": "uint256",
          "name": "amount",
          "type": "uint256"
        }
      ],
      "name": "DonationMade",
      "type": "event"
    },
    {
      "anonymous": false,
      "inputs": [
        {
          "indexed": true,
          "internalType": "uint256",
          "name": "campaignId",
          "type": "uint256"
        },
        {
          "indexed": true,
          "internalType": "address",
          "name": "donor",
          "type": "address"
        },
        {
          "indexed": false,
          "internalType": "address",
          "name": "token",
          "type": "address"
        },
        {
          "indexed": false,
          "internalType": "uint256",
          "name": "amount",
          "type": "uint256"
        }
      ],
      "name": "DonationRefunded",
      "type": "event"
    },
    {
      "anonymous": false,
      "inputs": [
        {
          "indexed": true,
          "internalType": "uint256",
          "name": "campaignId",
          "type": "uint256"
        },
        {
          "indexed": true,
          "internalType": "address",
          "name": "creator",
          "type": "address"
        },
        {
          "indexed": false,
          "internalType": "address",
          "name": "token",
          "type": "address"
        },
        {
          "indexed": false,
          "internalType": "uint256",
          "name": "amount",
          "type": "uint256"
        }
      ],
      "name": "FundsWithdrawn",
      "type": "event"
    },
    {
      "anonymous": false,
      "inputs": [
        {
          "indexed": true,
          "internalType": "bytes32",
          "name": "role",
          "type": "bytes32"
        },
        {
          "indexed": true,
          "internalType": "bytes32",
          "name": "previousAdminRole",
          "type": "bytes32"
        },
        {
          "indexed": true,
          "internalType": "bytes32",
          "name": "newAdminRole",
          "type": "bytes32"
        }
      ],
      "name": "RoleAdminChanged",
      "type": "event"
    },
    {
      "anonymous": false,
      "inputs": [
        {
          "indexed": true,
          "internalType": "bytes32",
          "name": "role",
          "type": "bytes32"
        },
        {
          "indexed": true,
          "internalType": "address",
          "name": "account",
          "type": "address"
        },
        {
          "indexed": true,
          "internalType": "address",
          "name": "sender",
          "type": "address"
        }
      ],
      "name": "RoleGranted",
      "type": "event"
    },
    {
      "anonymous": false,
      "inputs": [
        {
          "indexed": true,
          "internalType": "bytes32",
          "name": "role",
          "type": "bytes32"
        },
        {
          "indexed": true,
          "internalType": "address",
          "name": "account",
          "type": "address"
        },
        {
          "indexed": true,
          "internalType": "address",
          "name": "sender",
          "type": "address"
        }
      ],
      "name": "RoleRevoked",
      "type": "event"
    },
    {
      "anonymous": false,
      "inputs": [
        {
          "indexed": true,
          "internalType": "address",
          "name": "token",
          "type": "address"
        },
        {
          "indexed": false,
          "internalType": "bool",
          "name": "allowed",
          "type": "bool"
        }
      ],
      "name": "TokenAllowed",
      "type": "event"
    },
    {
      "inputs": [],
      "name": "CAMPAIGN_CREATOR_ROLE",
      "outputs": [
        {
          "internalType": "bytes32",
          "name": "",
          "type": "bytes32"
        }
      ],
      "stateMutability": "view",
      "type": "function"
    },
    {
      "inputs": [],
      "name": "DEFAULT_ADMIN_ROLE",
      "outputs": [
        {
          "internalType": "bytes32",
          "name": "",
          "type": "bytes32"
        }
      ],
      "stateMutability": "view",
      "type": "function"
    },
    {
      "inputs": [],
      "name": "MAX_CAMPAIGN_DURATION",
      "outputs": [
        {
          "internalType": "uint256",
          "name": "",
          "type": "uint256"
        }
      ],
      "stateMutability": "view",
      "type": "function"
    },
    {
      "inputs": [],
      "name": "TOKEN_MANAGER_ROLE",
      "outputs": [
        {
          "internalType": "bytes32",
          "name": "",
          "type": "bytes32"
        }
      ],
      "stateMutability": "view",
      "type": "function"
    },
    {
      "inputs": [
        {
          "internalType": "address",
          "name": "",
          "type": "address"
        }
      ],
      "name": "allowedTokens",
      "outputs": [
        {
          "internalType": "bool",
          "name": "",
          "type": "bool"
        }
      ],
      "stateMutability": "view",
      "type": "function"
    },
    {
      "inputs": [
        {
          "internalType": "uint256",
          "name": "",
          "type": "uint256"
        }
      ],
      "name": "allowedTokensList",
      "outputs": [
        {
          "internalType": "address",
          "name": "",
          "type": "address"
        }
      ],
      "stateMutability": "view",
      "type": "function"
    },
    {
      "inputs": [
        {
          "internalType": "uint256",
          "name": "",
          "type": "uint256"
        },
        {
          "internalType": "uint256",
          "name": "",
          "type": "uint256"
        }
      ],
      "name": "campaignDonationHistory",
      "outputs": [
        {
          "internalType": "address",
          "name": "donor",
          "type": "address"
        },
        {
          "internalType": "uint256",
          "name": "amount",
          "type": "uint256"
        },
        {
          "internalType": "uint256",
          "name": "timestamp",
          "type": "uint256"
        }
      ],
      "stateMutability": "view",
      "type": "function"
    },
    {
      "inputs": [
        {
          "internalType": "uint256",
          "name": "",
          "type": "uint256"
        },
        {
          "internalType": "address",
          "name": "",
          "type": "address"
        }
      ],
      "name": "campaignDonations",
      "outputs": [
        {
          "internalType": "uint256",
          "name": "",
          "type": "uint256"
        }
      ],
      "stateMutability": "view",
      "type": "function"
    },
    {
      "inputs": [
        {
          "internalType": "uint256",
          "name": "",
          "type": "uint256"
        }
      ],
      "name": "campaignObject",
      "outputs": [
        {
          "internalType": "uint256",
          "name": "id",
          "type": "uint256"
        },
        {
          "internalType": "string",
          "name": "name",
          "type": "string"
        },
        {
          "internalType": "string",
          "name": "description",
          "type": "string"
        },
        {
          "internalType": "address",
          "name": "creator",
          "type": "address"
        },
        {
          "internalType": "uint256",
          "name": "goalAmount",
          "type": "uint256"
        },
        {
          "internalType": "uint256",
          "name": "totalDonated",
          "type": "uint256"
        },
        {
          "internalType": "uint256",
          "name": "createdAt",
          "type": "uint256"
        },
        {
          "internalType": "uint256",
          "name": "deadline",
          "type": "uint256"
        },
        {
          "internalType": "bool",
          "name": "active",
          "type": "bool"
        },
        {
          "internalType": "bool",
          "name": "exists",
          "type": "bool"
        },
        {
          "internalType": "bool",
          "name": "funded",
          "type": "bool"
        },
        {
          "internalType": "bool",
          "name": "cancelled",
          "type": "bool"
        }
      ],
      "stateMutability": "view",
      "type": "function"
    },
    {
      "inputs": [
        {
          "internalType": "uint256",
          "name": "",
          "type": "uint256"
        }
      ],
      "name": "campaigns",
      "outputs": [
        {
          "internalType": "uint256",
          "name": "id",
          "type": "uint256"
        },
        {
          "internalType": "string",
          "name": "name",
          "type": "string"
        },
        {
          "internalType": "string",
          "name": "description",
          "type": "string"
        },
        {
          "internalType": "address",
          "name": "creator",
          "type": "address"
        },
        {
          "internalType": "uint256",
          "name": "goalAmount",
          "type": "uint256"
        },
        {
          "internalType": "uint256",
          "name": "totalDonated",
          "type": "uint256"
        },
        {
          "internalType": "uint256",
          "name": "createdAt",
          "type": "uint256"
        },
        {
          "internalType": "uint256",
          "name": "deadline",
          "type": "uint256"
        },
        {
          "internalType": "bool",
          "name": "active",
          "type": "bool"
        },
        {
          "internalType": "bool",
          "name": "exists",
          "type": "bool"
        },
        {
          "internalType": "bool",
          "name": "funded",
          "type": "bool"
        },
        {
          "internalType": "bool",
          "name": "cancelled",
          "type": "bool"
        }
      ],
      "stateMutability": "view",
      "type": "function"
    },
    {
      "inputs": [
        {
          "internalType": "uint256",
          "name": "_campaignId",
          "type": "uint256"
        }
      ],
      "name": "cancelCampaign",
      "outputs": [],
      "stateMutability": "nonpayable",
      "type": "function"
    },
    {
      "inputs": [
        {
          "internalType": "string",
          "name": "_name",
          "type": "string"
        },
        {
          "internalType": "string",
          "name": "_description",
          "type": "string"
        },
        {
          "internalType": "uint256",
          "name": "_goalAmount",
          "type": "uint256"
        },
        {
          "internalType": "uint256",
          "name": "_durationInDays",
          "type": "uint256"
        }
      ],
      "name": "createCampaign",
      "outputs": [
        {
          "internalType": "uint256",
          "name": "",
          "type": "uint256"
        }
      ],
      "stateMutability": "nonpayable",
      "type": "function"
    },
    {
      "inputs": [
        {
          "internalType": "address",
          "name": "token",
          "type": "address"
        },
        {
          "internalType": "uint256",
          "name": "_campaignId",
          "type": "uint256"
        },
        {
          "internalType": "uint256",
          "name": "_amount",
          "type": "uint256"
        }
      ],
      "name": "donateToCampaign",
      "outputs": [
        {
          "internalType": "bool",
          "name": "",
          "type": "bool"
        }
      ],
      "stateMutability": "nonpayable",
      "type": "function"
    },
    {
      "inputs": [
        {
          "internalType": "uint256",
          "name": "",
          "type": "uint256"
        },
        {
          "internalType": "address",
          "name": "",
          "type": "address"
        },
        {
          "internalType": "address",
          "name": "",
          "type": "address"
        }
      ],
      "name": "donorContributions",
      "outputs": [
        {
          "internalType": "uint256",
          "name": "",
          "type": "uint256"
        }
      ],
      "stateMutability": "view",
      "type": "function"
    },
    {
      "inputs": [],
      "name": "getAllCampaigns",
      "outputs": [
        {
          "components": [
            {
              "internalType": "uint256",
              "name": "id",
              "type": "uint256"
            },
            {
              "internalType": "string",
              "name": "name",
              "type": "string"
            },
            {
              "internalType": "string",
              "name": "description",
              "type": "string"
            },
            {
              "internalType": "address",
              "name": "creator",
              "type": "address"
            },
            {
              "internalType": "uint256",
              "name": "goalAmount",
              "type": "uint256"
            },
            {
              "internalType": "uint256",
              "name": "totalDonated",
              "type": "uint256"
            },
            {
              "internalType": "uint256",
              "name": "createdAt",
              "type": "uint256"
            },
            {
              "internalType": "uint256",
              "name": "deadline",
              "type": "uint256"
            },
            {
              "internalType": "bool",
              "name": "active",
              "type": "bool"
            },
            {
              "internalType": "bool",
              "name": "exists",
              "type": "bool"
            },
            {
              "internalType": "bool",
              "name": "funded",
              "type": "bool"
            },
            {
              "internalType": "bool",
              "name": "cancelled",
              "type": "bool"
            }
          ],
          "internalType": "struct DonorContract.Campaign[]",
          "name": "",
          "type": "tuple[]"
        }
      ],
      "stateMutability": "view",
      "type": "function"
    },
    {
      "inputs": [],
      "name": "getAllowedTokens",
      "outputs": [
        {
          "internalType": "address[]",
          "name": "",
          "type": "address[]"
        }
      ],
      "stateMutability": "view",
      "type": "function"
    },
    {
      "inputs": [
        {
          "internalType": "uint256",
          "name": "_campaignId",
          "type": "uint256"
        }
      ],
      "name": "getCampaignById",
      "outputs": [
        {
          "components": [
            {
              "internalType": "uint256",
              "name": "id",
              "type": "uint256"
            },
            {
              "internalType": "string",
              "name": "name",
              "type": "string"
            },
            {
              "internalType": "string",
              "name": "description",
              "type": "string"
            },
            {
              "internalType": "address",
              "name": "creator",
              "type": "address"
            },
            {
              "internalType": "uint256",
              "name": "goalAmount",
              "type": "uint256"
            },
            {
              "internalType": "uint256",
              "name": "totalDonated",
              "type": "uint256"
            },
            {
              "internalType": "uint256",
              "name": "createdAt",
              "type": "uint256"
            },
            {
              "internalType": "uint256",
              "name": "deadline",
              "type": "uint256"
            },
            {
              "internalType": "bool",
              "name": "active",
              "type": "bool"
            },
            {
              "internalType": "bool",
              "name": "exists",
              "type": "bool"
            },
            {
              "internalType": "bool",
              "name": "funded",
              "type": "bool"
            },
            {
              "internalType": "bool",
              "name": "cancelled",
              "type": "bool"
            }
          ],
          "internalType": "struct DonorContract.Campaign",
          "name": "",
          "type": "tuple"
        }
      ],
      "stateMutability": "view",
      "type": "function"
    },
    {
      "inputs": [
        {
          "internalType": "uint256",
          "name": "_campaignId",
          "type": "uint256"
        }
      ],
      "name": "getCampaignDonations",
      "outputs": [
        {
          "components": [
            {
              "internalType": "address",
              "name": "donor",
              "type": "address"
            },
            {
              "internalType": "uint256",
              "name": "amount",
              "type": "uint256"
            },
            {
              "internalType": "uint256",
              "name": "timestamp",
              "type": "uint256"
            }
          ],
          "internalType": "struct DonorContract.Donation[]",
          "name": "",
          "type": "tuple[]"
        }
      ],
      "stateMutability": "view",
      "type": "function"
    },
    {
      "inputs": [
        {
          "internalType": "uint256",
          "name": "_campaignId",
          "type": "uint256"
        },
        {
          "internalType": "address",
          "name": "token",
          "type": "address"
        }
      ],
      "name": "getCampaignFundsByToken",
      "outputs": [
        {
          "internalType": "uint256",
          "name": "",
          "type": "uint256"
        }
      ],
      "stateMutability": "view",
      "type": "function"
    },
    {
      "inputs": [
        {
          "internalType": "uint256",
          "name": "_campaignId",
          "type": "uint256"
        }
      ],
      "name": "getCampaignTokenBalances",
      "outputs": [
        {
          "internalType": "address[]",
          "name": "",
          "type": "address[]"
        },
        {
          "internalType": "uint256[]",
          "name": "",
          "type": "uint256[]"
        }
      ],
      "stateMutability": "view",
      "type": "function"
    },
    {
      "inputs": [
        {
          "internalType": "bytes32",
          "name": "role",
          "type": "bytes32"
        }
      ],
      "name": "getRoleAdmin",
      "outputs": [
        {
          "internalType": "bytes32",
          "name": "",
          "type": "bytes32"
        }
      ],
      "stateMutability": "view",
      "type": "function"
    },
    {
      "inputs": [
        {
          "internalType": "bytes32",
          "name": "role",
          "type": "bytes32"
        },
        {
          "internalType": "uint256",
          "name": "index",
          "type": "uint256"
        }
      ],
      "name": "getRoleMember",
      "outputs": [
        {
          "internalType": "address",
          "name": "",
          "type": "address"
        }
      ],
      "stateMutability": "view",
      "type": "function"
    },
    {
      "inputs": [
        {
          "internalType": "bytes32",
          "name": "role",
          "type": "bytes32"
        }
      ],
      "name": "getRoleMemberCount",
      "outputs": [
        {
          "internalType": "uint256",
          "name": "",
          "type": "uint256"
        }
      ],
      "stateMutability": "view",
      "type": "function"
    },
    {
      "inputs": [
        {
          "internalType": "bytes32",
          "name": "role",
          "type": "bytes32"
        },
        {
          "internalType": "address",
          "name": "account",
          "type": "address"
        }
      ],
      "name": "grantRole",
      "outputs": [],
      "stateMutability": "nonpayable",
      "type": "function"
    },
    {
      "inputs": [
        {
          "internalType": "bytes32",
          "name": "role",
          "type": "bytes32"
        },
        {
          "internalType": "address",
          "name": "account",
          "type": "address"
        }
      ],
      "name": "hasRole",
      "outputs": [
        {
          "internalType": "bool",
          "name": "",
          "type": "bool"
        }
      ],
      "stateMutability": "view",
      "type": "function"
    },
    {
      "inputs": [
        {
          "internalType": "uint256",
          "name": "_campaignId",
          "type": "uint256"
        }
      ],
      "name": "isCampaignSuccessful",
      "outputs": [
        {
          "internalType": "bool",
          "name": "",
          "type": "bool"
        }
      ],
      "stateMutability": "view",
      "type": "function"
    },
    {
      "inputs": [
        {
          "internalType": "uint256",
          "name": "_campaignId",
          "type": "uint256"
        },
        {
          "internalType": "address",
          "name": "token",
          "type": "address"
        }
      ],
      "name": "refundDonation",
      "outputs": [],
      "stateMutability": "nonpayable",
      "type": "function"
    },
    {
      "inputs": [
        {
          "internalType": "address",
          "name": "token",
          "type": "address"
        }
      ],
      "name": "removeAllowedToken",
      "outputs": [],
      "stateMutability": "nonpayable",
      "type": "function"
    },
    {
      "inputs": [
        {
          "internalType": "bytes32",
          "name": "role",
          "type": "bytes32"
        },
        {
          "internalType": "address",
          "name": "account",
          "type": "address"
        }
      ],
      "name": "renounceRole",
      "outputs": [],
      "stateMutability": "nonpayable",
      "type": "function"
    },
    {
      "inputs": [
        {
          "internalType": "bytes32",
          "name": "role",
          "type": "bytes32"
        },
        {
          "internalType": "address",
          "name": "account",
          "type": "address"
        }
      ],
      "name": "revokeRole",
      "outputs": [],
      "stateMutability": "nonpayable",
      "type": "function"
    },
    {
      "inputs": [
        {
          "internalType": "address",
          "name": "token",
          "type": "address"
        },
        {
          "internalType": "bool",
          "name": "allowed",
          "type": "bool"
        }
      ],
      "name": "setAllowedToken",
      "outputs": [],
      "stateMutability": "nonpayable",
      "type": "function"
    },
    {
      "inputs": [
        {
          "internalType": "bytes4",
          "name": "interfaceId",
          "type": "bytes4"
        }
      ],
      "name": "supportsInterface",
      "outputs": [
        {
          "internalType": "bool",
          "name": "",
          "type": "bool"
        }
      ],
      "stateMutability": "view",
      "type": "function"
    },
    {
      "inputs": [
        {
          "internalType": "uint256",
          "name": "",
          "type": "uint256"
        },
        {
          "internalType": "address",
          "name": "",
          "type": "address"
        }
      ],
      "name": "tokenWithdrawn",
      "outputs": [
        {
          "internalType": "bool",
          "name": "",
          "type": "bool"
        }
      ],
      "stateMutability": "view",
      "type": "function"
    },
    {
      "inputs": [
        {
          "internalType": "address",
          "name": "token",
          "type": "address"
        },
        {
          "internalType": "uint256",
          "name": "_campaignId",
          "type": "uint256"
        }
      ],
      "name": "withdrawFunds",
      "outputs": [],
      "stateMutability": "nonpayable",
      "type": "function"
    }
  ],
  "bytecode": "0x6080604052600160035534801561001557600080fd5b50600160009081556100279033610056565b6100517f74f7a545c65c11839a48d7453738b30c295408df2d944516167556759ddc6d0633610056565b610172565b610060828261007d565b60008281526002602052604090206100789082610105565b505050565b60008281526001602090815260408083206001600160a01b038516845290915290205460ff166101015760008281526001602081815260408084206001600160a01b0386168086529252808420805460ff19169093179092559051339285917f2f8788117e7eff1d82e926ec794901d17c78024a50270940304540a733656f0d9190a45b5050565b600061011a836001600160a01b038416610123565b90505b92915050565b600081815260018301602052604081205461016a5750815460018181018455600084815260208082209093018490558454848252828601909352604090209190915561011d565b50600061011d565b613712806101816000396000f3fe608060405234801561001057600080fd5b50600436106102065760003560e01c80639010d07c1161011a578063c1075329116100ad578063ca15c8731161007c578063ca15c87314610542578063d547741f14610555578063d567f1ae14610568578063e6ffcaa11461057b578063e744092e1461059b57600080fd5b8063c1075329146104ce578063c2840e60146104e1578063c36dd73914610508578063c7fe4e541461051b57600080fd5b8063a318f269116100e9578063a318f26914610434578063afbbc68514610447578063b9c3f38f1461047f578063bbb858f9146104a057600080fd5b80639010d07c146103db57806390469a9d1461040657806391d1485414610419578063a217fddf1461042c57600080fd5b806345598b4a1161019d5780637f5d25ed1161016c5780637f5d25ed1461036457806384fdb39f1461039557806386cdf604146103a85780638aaa2284146103bd5780638c7bc838146103d057600080fd5b806345598b4a146102f35780635167642f14610306578063564a7ac1146103265780635a3915cd1461035157600080fd5b8063248a9ca3116101d9578063248a9ca3146102865780632f2ff15d146102b857806336568abe146102cd57806338e7a813146102e057600080fd5b806301ffc9a71461020b578063024ece891461023357806306db57bb14610248578063141961bc1461025b575b600080fd5b61021e610219366004612db6565b6105be565b60405190151581526020015b60405180910390f35b61023b6105e9565b60405161022a9190612e25565b61021e610256366004612e38565b61064b565b61026e610269366004612e38565b6106ab565b60405161022a9c9b9a99989796959493929190612ea1565b6102aa610294366004612e38565b6000908152600160208190526040909120015490565b60405190815260200161022a565b6102cb6102c6366004612f4e565b610841565b005b6102cb6102db366004612f4e565b61086c565b61026e6102ee366004612e38565b6108ea565b6102cb610301366004612e38565b61090c565b610319610314366004612e38565b610aab565b60405161022a9190612f7a565b6102aa610334366004612f4e565b600560209081526000928352604080842090915290825290205481565b61021e61035f366004612fdf565b610b6d565b6102aa610372366004613012565b600860209081526000938452604080852082529284528284209052825290205481565b6102cb6103a3366004612f4e565b610f72565b6103b06111b6565b60405161022a919061312d565b6102cb6103cb3660046131a0565b6113c4565b6102aa6301e1338081565b6103ee6103e93660046131d7565b61150f565b6040516001600160a01b03909116815260200161022a565b6102cb6104143660046131f9565b611527565b61021e610427366004612f4e565b61170e565b6102aa600081565b6102aa6104423660046132b9565b611739565b61045a6104553660046131d7565b611c61565b604080516001600160a01b03909416845260208401929092529082015260600161022a565b61049261048d366004612e38565b611cad565b60405161022a929190613332565b61021e6104ae366004612f4e565b600960209081526000928352604080842090915290825290205460ff1681565b6102cb6104dc36600461338c565b611e60565b6102aa7f74f7a545c65c11839a48d7453738b30c295408df2d944516167556759ddc6d0681565b6103ee610516366004612e38565b61227a565b6102aa7faabecfdf6c789f9fb8a93bd3a33e66be61c9d95c3d88fbe57f4acd20b6d738f881565b6102aa610550366004612e38565b6122a4565b6102cb610563366004612f4e565b6122bb565b6102aa610576366004612f4e565b6122e1565b61058e610589366004612e38565b612340565b60405161022a91906133b6565b61021e6105a93660046131f9565b60066020526000908152604090205460ff1681565b60006001600160e01b03198216635a05180f60e01b14806105e357506105e3826125b9565b92915050565b6060600b80548060200260200160405190810160405280929190818152602001828054801561064157602002820191906000526020600020905b81546001600160a01b03168152600190910190602001808311610623575b5050505050905090565b600081815260046020526040812060080154610100900460ff1661068a5760405162461bcd60e51b8152600401610681906133c9565b60405180910390fd5b50600090815260046020819052604090912090810154600590910154101590565b600a81815481106106bb57600080fd5b600091825260209091206009909102018054600182018054919350906106e090613400565b80601f016020809104026020016040519081016040528092919081815260200182805461070c90613400565b80156107595780601f1061072e57610100808354040283529160200191610759565b820191906000526020600020905b81548152906001019060200180831161073c57829003601f168201915b50505050509080600201805461076e90613400565b80601f016020809104026020016040519081016040528092919081815260200182805461079a90613400565b80156107e75780601f106107bc576101008083540402835291602001916107e7565b820191906000526020600020905b8154815290600101906020018083116107ca57829003601f168201915b5050506003840154600485015460058601546006870154600788015460089098015496976001600160a01b0390941696929550909350919060ff80821691610100810482169162010000820481169163010000009004168c565b6000828152600160208190526040909120015461085d816125ee565b61086783836125fb565b505050565b6001600160a01b03811633146108dc5760405162461bcd60e51b815260206004820152602f60248201527f416363657373436f6e74726f6c3a2063616e206f6e6c792072656e6f756e636560448201526e103937b632b9903337b91039b2b63360891b6064820152608401610681565b6108e6828261261d565b5050565b600460205260009081526040902080546001820180549192916106e090613400565b60008181526004602052604090206008810154610100900460ff166109435760405162461bcd60e51b8152600401610681906133c9565b60038101546001600160a01b0316331480610964575061096460003361170e565b6109b05760405162461bcd60e51b815260206004820152601860248201527f4e6f7420617574686f72697a656420746f2063616e63656c00000000000000006044820152606401610681565b600881015462010000900460ff1615610a0b5760405162461bcd60e51b815260206004820152601760248201527f43616d706169676e20616c72656164792066756e6465640000000000000000006044820152606401610681565b60088101546301000000900460ff1615610a675760405162461bcd60e51b815260206004820152601a60248201527f43616d706169676e20616c72656164792063616e63656c6c65640000000000006044820152606401610681565b60088101805463ff0000ff1916630100000017905560405182907f403b6718db13878ac16c27decb08f09d3a10f116c7c25af575ff5bfbc11ae9e690600090a25050565b600081815260046020526040902060080154606090610100900460ff16610ae45760405162461bcd60e51b8152600401610681906133c9565b600082815260076020908152604080832080548251818502810185019093528083529193909284015b82821015610b62576000848152602090819020604080516060810182526003860290920180546001600160a01b0316835260018082015484860152600290910154918301919091529083529092019101610b0d565b505050509050919050565b6000610b7761263f565b6001600160a01b03841660009081526006602052604090205460ff16610bd55760405162461bcd60e51b8152602060048201526013602482015272151bdad95b881b9bdd081cdd5c1c1bdc9d1959606a1b6044820152606401610681565b600083815260046020526040902060080154610100900460ff16610c0b5760405162461bcd60e51b8152600401610681906133c9565b60008211610c6d5760405162461bcd60e51b815260206004820152602960248201527f446f6e6174696f6e20616d6f756e74206d7573742062652067726561746572206044820152687468616e207a65726f60b81b6064820152608401610681565b60008381526004602052604090206008015460ff16610cc75760405162461bcd60e51b815260206004820152601660248201527543616d706169676e206973206e6f742061637469766560501b6044820152606401610681565b6000838152600460205260409020600801546301000000900460ff1615610d285760405162461bcd60e51b815260206004820152601560248201527410d85b5c185a59db881a5cc818d85b98d95b1b1959605a1b6044820152606401610681565b600083815260046020526040902060070154421115610d7e5760405162461bcd60e51b815260206004820152601260248201527110d85b5c185a59db881a185cc8195b99195960721b6044820152606401610681565b610d936001600160a01b038516333085612698565b60008381526004602052604081206005018054849290610db4908490613450565b909155505060008381526005602090815260408083206001600160a01b038816845290915281208054849290610deb908490613450565b9091555050600083815260086020908152604080832033845282528083206001600160a01b038816845290915281208054849290610e2a908490613450565b90915550600090505b600a54811015610eaf5783600a8281548110610e5157610e51613463565b90600052602060002090600902016000015403610ea75782600a8281548110610e7c57610e7c613463565b90600052602060002090600902016005016000828254610e9c9190613450565b90915550610eaf9050565b600101610e33565b50600083815260076020908152604080832081516060810183523380825281850188815242838601908152845460018082018755958952978790209351600390980290930180546001600160a01b0319166001600160a01b03988916178155905193810193909355905160029092019190915581519388168452918301859052909185917f72ea702afc24965f735ac4ac552f859b352084ad99f47a425a691630814014fe910160405180910390a3506001610f6b6001600055565b9392505050565b610f7a61263f565b600082815260046020526040902060088101546301000000900460ff16610fe35760405162461bcd60e51b815260206004820152601960248201527f43616d706169676e206973206e6f742063616e63656c6c6564000000000000006044820152606401610681565b600083815260086020908152604080832033845282528083206001600160a01b0386168452909152902054806110535760405162461bcd60e51b8152602060048201526015602482015274139bc8191bdb985d1a5bdb881d1bc81c99599d5b99605a1b6044820152606401610681565b60008481526005602090815260408083206001600160a01b038716845290915281208054839290611085908490613479565b92505081905550808260050160008282546110a09190613479565b9091555050600084815260086020908152604080832033845282528083206001600160a01b038716845290915281208190555b600a5481101561114f5784600a82815481106110f1576110f1613463565b906000526020600020906009020160000154036111475781600a828154811061111c5761111c613463565b9060005260206000209060090201600501600082825461113c9190613479565b9091555061114f9050565b6001016110d3565b506111646001600160a01b0384163383612709565b604080516001600160a01b038516815260208101839052339186917f0871598c62fbea849824d5895fc3129036798cca146dbf42e3284d97c284597f910160405180910390a350506108e66001600055565b6060600a805480602002602001604051908101604052809291908181526020016000905b828210156113bb5783829060005260206000209060090201604051806101800160405290816000820154815260200160018201805461121890613400565b80601f016020809104026020016040519081016040528092919081815260200182805461124490613400565b80156112915780601f1061126657610100808354040283529160200191611291565b820191906000526020600020905b81548152906001019060200180831161127457829003601f168201915b505050505081526020016002820180546112aa90613400565b80601f01602080910402602001604051908101604052809291908181526020018280546112d690613400565b80156113235780601f106112f857610100808354040283529160200191611323565b820191906000526020600020905b81548152906001019060200180831161130657829003601f168201915b505050918352505060038201546001600160a01b0316602080830191909152600483015460408301526005830154606083015260068301546080830152600783015460a083015260089092015460ff808216151560c08401526101008083048216151560e0850152620100008304821615159084015263010000009091041615156101209091015290825260019290920191016111da565b50505050905090565b7f74f7a545c65c11839a48d7453738b30c295408df2d944516167556759ddc6d066113ee816125ee565b6001600160a01b0383166000908152600660205260409020805460ff191683158015919091179091556114c5576000805b600b5481101561147157846001600160a01b0316600b828154811061144657611446613463565b6000918252602090912001546001600160a01b0316036114695760019150611471565b60010161141f565b50806114c357600b80546001810182556000919091527f0175b7a638427703f0dbe7bb9bbf987a2551717b34e79f33b5b1008d1fa01db90180546001600160a01b0319166001600160a01b0386161790555b505b826001600160a01b03167f9a8e30a8658b96ab3f034ce4bac6806278b4aee5880ccdd1ac35e4ed5bb31d2383604051611502911515815260200190565b60405180910390a2505050565b6000828152600260205260408120610f6b9083612739565b7f74f7a545c65c11839a48d7453738b30c295408df2d944516167556759ddc6d06611551816125ee565b6001600160a01b03821660009081526006602052604090205460ff166115b95760405162461bcd60e51b815260206004820152601960248201527f546f6b656e206e6f7420696e20616c6c6f776564206c697374000000000000006044820152606401610681565b60005b600b548110156116b757826001600160a01b0316600b82815481106115e3576115e3613463565b6000918252602090912001546001600160a01b0316036116af57600b805461160d90600190613479565b8154811061161d5761161d613463565b600091825260209091200154600b80546001600160a01b03909216918390811061164957611649613463565b9060005260206000200160006101000a8154816001600160a01b0302191690836001600160a01b03160217905550600b8054806116885761168861348c565b600082815260209020810160001990810180546001600160a01b03191690550190556116b7565b6001016115bc565b506001600160a01b0382166000818152600660209081526040808320805460ff19169055519182527f9a8e30a8658b96ab3f034ce4bac6806278b4aee5880ccdd1ac35e4ed5bb31d23910160405180910390a25050565b60009182526001602090815260408084206001600160a01b0393909316845291905290205460ff1690565b6000808551116117825760405162461bcd60e51b81526020600482015260146024820152734e616d652063616e6e6f7420626520656d70747960601b6044820152606401610681565b600083116117e05760405162461bcd60e51b815260206004820152602560248201527f476f616c20616d6f756e74206d7573742062652067726561746572207468616e604482015264207a65726f60d81b6064820152608401610681565b6000821180156117f2575061016d8211155b6118315760405162461bcd60e51b815260206004820152601060248201526f24b73b30b634b210323ab930ba34b7b760811b6044820152606401610681565b600354600081815260046020526040902060080154610100900460ff161561189b5760405162461bcd60e51b815260206004820152601760248201527f43616d706169676e20616c7265616479206578697374730000000000000000006044820152606401610681565b60006118aa84620151806134a2565b6118b49042613450565b90506118c46301e1338042613450565b8111156119075760405162461bcd60e51b81526020600482015260116024820152704475726174696f6e20746f6f206c6f6e6760781b6044820152606401610681565b604080516101808101825283815260208082018a81528284018a905233606084015260808301899052600060a084018190524260c085015260e084018690526001610100850181905261012085018190526101408501829052610160850182905287825260049093529390932082518155925191928392909182019061198d9082613507565b50604082015160028201906119a29082613507565b5060608201516003820180546001600160a01b0319166001600160a01b039092169190911790556080820151600482015560a0820151600582015560c0820151600682015560e0820151600782015561010080830151600890920180546101208501516101408601516101609096015161ffff1990921694151561ff001916949094179315159092029290921763ffff00001916620100009315159390930263ff000000191692909217630100000092151592909202919091179055600a805460018101825560009190915281517fc65a7bb8d6351c1cf70c95a316cc6a92839c986682d98bc35f958f4883f9d2a86009909202918201908155602083015183927fc65a7bb8d6351c1cf70c95a316cc6a92839c986682d98bc35f958f4883f9d2a90190611ad09082613507565b5060408201516002820190611ae59082613507565b5060608201516003820180546001600160a01b0319166001600160a01b039092169190911790556080820151600482015560a0820151600582015560c0820151600682015560e0820151600782015561010080830151600890920180546101208501516101408601516101609096015161ffff1990921694151561ff001916949094179315159092029290921763ffff00001916620100009315159390930263ff000000191692909217630100000092151592909202919091179055611bcb7faabecfdf6c789f9fb8a93bd3a33e66be61c9d95c3d88fbe57f4acd20b6d738f8336125fb565b604051339084907f883479554ab3934aa8f7a2a39a33bbf02dad4d1ba4544a7ac9bae6d0537ed57d90600090a3336001600160a01b0316837fdc26653af5b99b2da33e2ad69ee6600d9aeccc82b034501db4338309615ca2388a8986604051611c36939291906135c6565b60405180910390a360038054906000611c4e836135eb565b909155509293505050505b949350505050565b60076020528160005260406000208181548110611c7d57600080fd5b60009182526020909120600390910201805460018201546002909201546001600160a01b03909116935090915083565b6000818152600460205260409020600801546060908190610100900460ff16611ce85760405162461bcd60e51b8152600401610681906133c9565b600b5460009067ffffffffffffffff811115611d0657611d06613214565b604051908082528060200260200182016040528015611d2f578160200160208202803683370190505b50600b5490915060009067ffffffffffffffff811115611d5157611d51613214565b604051908082528060200260200182016040528015611d7a578160200160208202803683370190505b50905060005b600b54811015611e5557600b8181548110611d9d57611d9d613463565b9060005260206000200160009054906101000a90046001600160a01b0316838281518110611dcd57611dcd613463565b6001600160a01b039092166020928302919091018201526000878152600590915260408120600b805491929184908110611e0957611e09613463565b60009182526020808320909101546001600160a01b031683528201929092526040019020548251839083908110611e4257611e42613463565b6020908102919091010152600101611d80565b509094909350915050565b611e6861263f565b60008181526004602052604090206008810154610100900460ff16611e9f5760405162461bcd60e51b8152600401610681906133c9565b60038101546001600160a01b03163314611efb5760405162461bcd60e51b815260206004820152601960248201527f4f6e6c792063726561746f722063616e207769746864726177000000000000006044820152606401610681565b600881015460ff16611f485760405162461bcd60e51b815260206004820152601660248201527543616d706169676e206973206e6f742061637469766560501b6044820152606401610681565b600881015462010000900460ff1615611fa35760405162461bcd60e51b815260206004820152601760248201527f46756e647320616c72656164792077697468647261776e0000000000000000006044820152606401610681565b60088101546301000000900460ff1615611ff75760405162461bcd60e51b815260206004820152601560248201527410d85b5c185a59db881a5cc818d85b98d95b1b1959605a1b6044820152606401610681565b6120217faabecfdf6c789f9fb8a93bd3a33e66be61c9d95c3d88fbe57f4acd20b6d738f83361170e565b61205e5760405162461bcd60e51b815260206004820152600e60248201526d139bdd08185d5d1a1bdc9a5e995960921b6044820152606401610681565b60008281526009602090815260408083206001600160a01b038716845290915290205460ff16156120d15760405162461bcd60e51b815260206004820152601760248201527f546f6b656e20616c72656164792077697468647261776e0000000000000000006044820152606401610681565b6000816004015482600501541015905060008260070154421180156120fa575060008360050154115b905081806121055750805b6121475760405162461bcd60e51b815260206004820152601360248201527210d85b9b9bdd081dda5d1a191c985dc81e595d606a1b6044820152606401610681565b60008481526005602090815260408083206001600160a01b0389168452909152902054806121c35760405162461bcd60e51b815260206004820152602360248201527f4e6f2066756e647320746f20776974686472617720666f72207468697320746f60448201526235b2b760e91b6064820152608401610681565b60008581526009602090815260408083206001600160a01b038a16808552908352818420805460ff191660011790558884526005835281842081855290925282209190915560088501805462ff00ff191662010000179055612226903383612709565b604080516001600160a01b038816815260208101839052339187917f9467881c16409d70790ef2aa073424972ede02854453f7ff5036d66e860ee42f910160405180910390a3505050506108e66001600055565b600b818154811061228a57600080fd5b6000918252602090912001546001600160a01b0316905081565b60008181526002602052604081206105e390612745565b600082815260016020819052604090912001546122d7816125ee565b610867838361261d565b600082815260046020526040812060080154610100900460ff166123175760405162461bcd60e51b8152600401610681906133c9565b5060009182526005602090815260408084206001600160a01b0393909316845291905290205490565b6123b560405180610180016040528060008152602001606081526020016060815260200160006001600160a01b03168152602001600081526020016000815260200160008152602001600081526020016000151581526020016000151581526020016000151581526020016000151581525090565b600082815260046020526040902060080154610100900460ff166123eb5760405162461bcd60e51b8152600401610681906133c9565b60046000838152602001908152602001600020604051806101800160405290816000820154815260200160018201805461242490613400565b80601f016020809104026020016040519081016040528092919081815260200182805461245090613400565b801561249d5780601f106124725761010080835404028352916020019161249d565b820191906000526020600020905b81548152906001019060200180831161248057829003601f168201915b505050505081526020016002820180546124b690613400565b80601f01602080910402602001604051908101604052809291908181526020018280546124e290613400565b801561252f5780601f106125045761010080835404028352916020019161252f565b820191906000526020600020905b81548152906001019060200180831161251257829003601f168201915b505050918352505060038201546001600160a01b03166020820152600482015460408201526005820154606082015260068201546080820152600782015460a082015260089091015460ff808216151560c08401526101008083048216151560e0850152620100008304821615159084015263010000009091041615156101209091015292915050565b60006001600160e01b03198216637965db0b60e01b14806105e357506301ffc9a760e01b6001600160e01b03198316146105e3565b6125f8813361274f565b50565b61260582826127a8565b60008281526002602052604090206108679082612813565b6126278282612828565b6000828152600260205260409020610867908261288f565b6002600054036126915760405162461bcd60e51b815260206004820152601f60248201527f5265656e7472616e637947756172643a207265656e7472616e742063616c6c006044820152606401610681565b6002600055565b6040516001600160a01b03808516602483015283166044820152606481018290526127039085906323b872dd60e01b906084015b60408051601f198184030181529190526020810180516001600160e01b03166001600160e01b0319909316929092179091526128a4565b50505050565b6040516001600160a01b03831660248201526044810182905261086790849063a9059cbb60e01b906064016126cc565b6000610f6b8383612979565b60006105e3825490565b612759828261170e565b6108e657612766816129a3565b6127718360206129b5565b604051602001612782929190613604565b60408051601f198184030181529082905262461bcd60e51b825261068191600401613679565b6127b2828261170e565b6108e65760008281526001602081815260408084206001600160a01b0386168086529252808420805460ff19169093179092559051339285917f2f8788117e7eff1d82e926ec794901d17c78024a50270940304540a733656f0d9190a45050565b6000610f6b836001600160a01b038416612b51565b612832828261170e565b156108e65760008281526001602090815260408083206001600160a01b0385168085529252808320805460ff1916905551339285917ff6391f5c32d9c69d2a47ea670b442974b53935d1edc7fd64eb21e047a839171b9190a45050565b6000610f6b836001600160a01b038416612ba0565b60006128f9826040518060400160405280602081526020017f5361666545524332303a206c6f772d6c6576656c2063616c6c206661696c6564815250856001600160a01b0316612c939092919063ffffffff16565b905080516000148061291a57508080602001905181019061291a919061368c565b6108675760405162461bcd60e51b815260206004820152602a60248201527f5361666545524332303a204552433230206f7065726174696f6e20646964206e6044820152691bdd081cdd58d8d9595960b21b6064820152608401610681565b600082600001828154811061299057612990613463565b9060005260206000200154905092915050565b60606105e36001600160a01b03831660145b606060006129c48360026134a2565b6129cf906002613450565b67ffffffffffffffff8111156129e7576129e7613214565b6040519080825280601f01601f191660200182016040528015612a11576020820181803683370190505b509050600360fc1b81600081518110612a2c57612a2c613463565b60200101906001600160f81b031916908160001a905350600f60fb1b81600181518110612a5b57612a5b613463565b60200101906001600160f81b031916908160001a9053506000612a7f8460026134a2565b612a8a906001613450565b90505b6001811115612b02576f181899199a1a9b1b9c1cb0b131b232b360811b85600f1660108110612abe57612abe613463565b1a60f81b828281518110612ad457612ad4613463565b60200101906001600160f81b031916908160001a90535060049490941c93612afb816136a9565b9050612a8d565b508315610f6b5760405162461bcd60e51b815260206004820181905260248201527f537472696e67733a20686578206c656e67746820696e73756666696369656e746044820152606401610681565b6000818152600183016020526040812054612b98575081546001818101845560008481526020808220909301849055845484825282860190935260409020919091556105e3565b5060006105e3565b60008181526001830160205260408120548015612c89576000612bc4600183613479565b8554909150600090612bd890600190613479565b9050818114612c3d576000866000018281548110612bf857612bf8613463565b9060005260206000200154905080876000018481548110612c1b57612c1b613463565b6000918252602080832090910192909255918252600188019052604090208390555b8554869080612c4e57612c4e61348c565b6001900381819060005260206000200160009055905585600101600086815260200190815260200160002060009055600193505050506105e3565b60009150506105e3565b6060611c59848460008585600080866001600160a01b03168587604051612cba91906136c0565b60006040518083038185875af1925050503d8060008114612cf7576040519150601f19603f3d011682016040523d82523d6000602084013e612cfc565b606091505b5091509150612d0d87838387612d18565b979650505050505050565b60608315612d87578251600003612d80576001600160a01b0385163b612d805760405162461bcd60e51b815260206004820152601d60248201527f416464726573733a2063616c6c20746f206e6f6e2d636f6e74726163740000006044820152606401610681565b5081611c59565b611c598383815115612d9c5781518083602001fd5b8060405162461bcd60e51b81526004016106819190613679565b600060208284031215612dc857600080fd5b81356001600160e01b031981168114610f6b57600080fd5b600081518084526020840193506020830160005b82811015612e1b5781516001600160a01b0316865260209586019590910190600101612df4565b5093949350505050565b602081526000610f6b6020830184612de0565b600060208284031215612e4a57600080fd5b5035919050565b60005b83811015612e6c578181015183820152602001612e54565b50506000910152565b60008151808452612e8d816020860160208601612e51565b601f01601f19169290920160200192915050565b8c815261018060208201526000612ebc61018083018e612e75565b8281036040840152612ece818e612e75565b91505060018060a01b038b1660608301528960808301528860a08301528760c08301528660e0830152851515610100830152841515610120830152612f1861014083018515159052565b8215156101608301529d9c50505050505050505050505050565b80356001600160a01b0381168114612f4957600080fd5b919050565b60008060408385031215612f6157600080fd5b82359150612f7160208401612f32565b90509250929050565b602080825282518282018190526000918401906040840190835b81811015612fd457835180516001600160a01b03168452602080820151818601526040918201519185019190915290930192606090920191600101612f94565b509095945050505050565b600080600060608486031215612ff457600080fd5b612ffd84612f32565b95602085013595506040909401359392505050565b60008060006060848603121561302757600080fd5b8335925061303760208501612f32565b915061304560408501612f32565b90509250925092565b8051825260006020820151610180602085015261306f610180850182612e75565b9050604083015184820360408601526130888282612e75565b91505060608301516130a560608601826001600160a01b03169052565b506080830151608085015260a083015160a085015260c083015160c085015260e083015160e08501526101008301516130e361010086018215159052565b506101208301516130f961012086018215159052565b5061014083015161310f61014086018215159052565b5061016083015161312561016086018215159052565b509392505050565b6000602082016020835280845180835260408501915060408160051b86010192506020860160005b8281101561318657603f1987860301845261317185835161304e565b94506020938401939190910190600101613155565b50929695505050505050565b80151581146125f857600080fd5b600080604083850312156131b357600080fd5b6131bc83612f32565b915060208301356131cc81613192565b809150509250929050565b600080604083850312156131ea57600080fd5b50508035926020909101359150565b60006020828403121561320b57600080fd5b610f6b82612f32565b634e487b7160e01b600052604160045260246000fd5b600082601f83011261323b57600080fd5b813567ffffffffffffffff81111561325557613255613214565b604051601f8201601f19908116603f0116810167ffffffffffffffff8111828210171561328457613284613214565b60405281815283820160200185101561329c57600080fd5b816020850160208301376000918101602001919091529392505050565b600080600080608085870312156132cf57600080fd5b843567ffffffffffffffff8111156132e657600080fd5b6132f28782880161322a565b945050602085013567ffffffffffffffff81111561330f57600080fd5b61331b8782880161322a565b949794965050505060408301359260600135919050565b6040815260006133456040830185612de0565b828103602084015280845180835260208301915060208601925060005b81811015613380578351835260209384019390920191600101613362565b50909695505050505050565b6000806040838503121561339f57600080fd5b6133a883612f32565b946020939093013593505050565b602081526000610f6b602083018461304e565b60208082526017908201527f43616d706169676e20646f6573206e6f74206578697374000000000000000000604082015260600190565b600181811c9082168061341457607f821691505b60208210810361343457634e487b7160e01b600052602260045260246000fd5b50919050565b634e487b7160e01b600052601160045260246000fd5b808201808211156105e3576105e361343a565b634e487b7160e01b600052603260045260246000fd5b818103818111156105e3576105e361343a565b634e487b7160e01b600052603160045260246000fd5b80820281158282048414176105e3576105e361343a565b601f82111561086757806000526020600020601f840160051c810160208510156134e05750805b601f840160051c820191505b8181101561350057600081556001016134ec565b5050505050565b815167ffffffffffffffff81111561352157613521613214565b6135358161352f8454613400565b846134b9565b6020601f82116001811461356957600083156135515750848201515b600019600385901b1c1916600184901b178455613500565b600084815260208120601f198516915b828110156135995787850151825560209485019460019092019101613579565b50848210156135b75786840151600019600387901b60f8161c191681555b50505050600190811b01905550565b6060815260006135d96060830186612e75565b60208301949094525060400152919050565b6000600182016135fd576135fd61343a565b5060010190565b7f416363657373436f6e74726f6c3a206163636f756e742000000000000000000081526000835161363c816017850160208801612e51565b7001034b99036b4b9b9b4b733903937b6329607d1b601791840191820152835161366d816028840160208801612e51565b01602801949350505050565b602081526000610f6b6020830184612e75565b60006020828403121561369e57600080fd5b8151610f6b81613192565b6000816136b8576136b861343a565b506000190190565b600082516136d2818460208701612e51565b919091019291505056fea2646970667358221220c8e7f500a049b7b226320366e9952960338bb0edf6c8058f48808c97dee2256864736f6c634300081b0033",
  "linkReferences": {},
  "deployedLinkReferences": {}
}