{
  "_format": "hh-sol-artifact-1",
  "contractName": "DonorContract",
  "sourceName": "contracts/DonorContract.sol",
  "abi": [
    {
      "inputs": [],
      "stateMutability": "nonpayable",
      "type": "constructor"
    },
    {
      "anonymous": false,
      "inputs": [
        {
          "indexed": true,
          "internalType": "uint256",
          "name": "campaignId",
          "type": "uint256"
        }
      ],
      "name": "CampaignCancelled",
      "type": "event"
    },
    {
      "anonymous": false,
      "inputs": [
        {
          "indexed": true,
          "internalType": "uint256",
          "name": "campaignId",
          "type": "uint256"
        },
        {
          "indexed": true,
          "internalType": "address",
          "name": "creator",
          "type": "address"
        },
        {
          "indexed": false,
          "internalType": "string",
          "name": "name",
          "type": "string"
        },
        {
          "indexed": false,
          "internalType": "uint256",
          "name": "goalAmount",
          "type": "uint256"
        },
        {
          "indexed": false,
          "internalType": "uint256",
          "name": "deadline",
          "type": "uint256"
        }
      ],
      "name": "CampaignCreated",
      "type": "event"
    },
    {
      "anonymous": false,
      "inputs": [
        {
          "indexed": true,
          "internalType": "uint256",
          "name": "campaignId",
          "type": "uint256"
        },
        {
          "indexed": true,
          "internalType": "address",
          "name": "creator",
          "type": "address"
        }
      ],
      "name": "CampaignCreatorRoleGranted",
      "type": "event"
    },
    {
      "anonymous": false,
      "inputs": [
        {
          "indexed": true,
          "internalType": "uint256",
          "name": "campaignId",
          "type": "uint256"
        },
        {
          "indexed": true,
          "internalType": "address",
          "name": "donor",
          "type": "address"
        },
        {
          "indexed": false,
          "internalType": "address",
          "name": "token",
          "type": "address"
        },
        {
          "indexed": false,
          "internalType": "uint256",
          "name": "amount",
          "type": "uint256"
        }
      ],
      "name": "DonationMade",
      "type": "event"
    },
    {
      "anonymous": false,
      "inputs": [
        {
          "indexed": true,
          "internalType": "uint256",
          "name": "campaignId",
          "type": "uint256"
        },
        {
          "indexed": true,
          "internalType": "address",
          "name": "donor",
          "type": "address"
        },
        {
          "indexed": false,
          "internalType": "address",
          "name": "token",
          "type": "address"
        },
        {
          "indexed": false,
          "internalType": "uint256",
          "name": "amount",
          "type": "uint256"
        }
      ],
      "name": "DonationRefunded",
      "type": "event"
    },
    {
      "anonymous": false,
      "inputs": [
        {
          "indexed": true,
          "internalType": "uint256",
          "name": "campaignId",
          "type": "uint256"
        },
        {
          "indexed": true,
          "internalType": "address",
          "name": "creator",
          "type": "address"
        },
        {
          "indexed": false,
          "internalType": "address",
          "name": "token",
          "type": "address"
        },
        {
          "indexed": false,
          "internalType": "uint256",
          "name": "amount",
          "type": "uint256"
        }
      ],
      "name": "FundsWithdrawn",
      "type": "event"
    },
    {
      "anonymous": false,
      "inputs": [
        {
          "indexed": true,
          "internalType": "bytes32",
          "name": "role",
          "type": "bytes32"
        },
        {
          "indexed": true,
          "internalType": "bytes32",
          "name": "previousAdminRole",
          "type": "bytes32"
        },
        {
          "indexed": true,
          "internalType": "bytes32",
          "name": "newAdminRole",
          "type": "bytes32"
        }
      ],
      "name": "RoleAdminChanged",
      "type": "event"
    },
    {
      "anonymous": false,
      "inputs": [
        {
          "indexed": true,
          "internalType": "bytes32",
          "name": "role",
          "type": "bytes32"
        },
        {
          "indexed": true,
          "internalType": "address",
          "name": "account",
          "type": "address"
        },
        {
          "indexed": true,
          "internalType": "address",
          "name": "sender",
          "type": "address"
        }
      ],
      "name": "RoleGranted",
      "type": "event"
    },
    {
      "anonymous": false,
      "inputs": [
        {
          "indexed": true,
          "internalType": "bytes32",
          "name": "role",
          "type": "bytes32"
        },
        {
          "indexed": true,
          "internalType": "address",
          "name": "account",
          "type": "address"
        },
        {
          "indexed": true,
          "internalType": "address",
          "name": "sender",
          "type": "address"
        }
      ],
      "name": "RoleRevoked",
      "type": "event"
    },
    {
      "anonymous": false,
      "inputs": [
        {
          "indexed": true,
          "internalType": "address",
          "name": "token",
          "type": "address"
        },
        {
          "indexed": false,
          "internalType": "bool",
          "name": "allowed",
          "type": "bool"
        }
      ],
      "name": "TokenAllowed",
      "type": "event"
    },
    {
      "inputs": [],
      "name": "CAMPAIGN_CREATOR_ROLE",
      "outputs": [
        {
          "internalType": "bytes32",
          "name": "",
          "type": "bytes32"
        }
      ],
      "stateMutability": "view",
      "type": "function"
    },
    {
      "inputs": [],
      "name": "DEFAULT_ADMIN_ROLE",
      "outputs": [
        {
          "internalType": "bytes32",
          "name": "",
          "type": "bytes32"
        }
      ],
      "stateMutability": "view",
      "type": "function"
    },
    {
      "inputs": [],
      "name": "MAX_CAMPAIGN_DURATION",
      "outputs": [
        {
          "internalType": "uint256",
          "name": "",
          "type": "uint256"
        }
      ],
      "stateMutability": "view",
      "type": "function"
    },
    {
      "inputs": [],
      "name": "TOKEN_MANAGER_ROLE",
      "outputs": [
        {
          "internalType": "bytes32",
          "name": "",
          "type": "bytes32"
        }
      ],
      "stateMutability": "view",
      "type": "function"
    },
    {
      "inputs": [
        {
          "internalType": "address",
          "name": "",
          "type": "address"
        }
      ],
      "name": "allowedTokens",
      "outputs": [
        {
          "internalType": "bool",
          "name": "",
          "type": "bool"
        }
      ],
      "stateMutability": "view",
      "type": "function"
    },
    {
      "inputs": [
        {
          "internalType": "uint256",
          "name": "",
          "type": "uint256"
        },
        {
          "internalType": "uint256",
          "name": "",
          "type": "uint256"
        }
      ],
      "name": "campaignDonationHistory",
      "outputs": [
        {
          "internalType": "address",
          "name": "donor",
          "type": "address"
        },
        {
          "internalType": "uint256",
          "name": "amount",
          "type": "uint256"
        },
        {
          "internalType": "uint256",
          "name": "timestamp",
          "type": "uint256"
        }
      ],
      "stateMutability": "view",
      "type": "function"
    },
    {
      "inputs": [
        {
          "internalType": "uint256",
          "name": "",
          "type": "uint256"
        },
        {
          "internalType": "address",
          "name": "",
          "type": "address"
        }
      ],
      "name": "campaignDonations",
      "outputs": [
        {
          "internalType": "uint256",
          "name": "",
          "type": "uint256"
        }
      ],
      "stateMutability": "view",
      "type": "function"
    },
    {
      "inputs": [
        {
          "internalType": "uint256",
          "name": "",
          "type": "uint256"
        }
      ],
      "name": "campaignObject",
      "outputs": [
        {
          "internalType": "uint256",
          "name": "id",
          "type": "uint256"
        },
        {
          "internalType": "string",
          "name": "name",
          "type": "string"
        },
        {
          "internalType": "string",
          "name": "description",
          "type": "string"
        },
        {
          "internalType": "address",
          "name": "creator",
          "type": "address"
        },
        {
          "internalType": "uint256",
          "name": "goalAmount",
          "type": "uint256"
        },
        {
          "internalType": "uint256",
          "name": "totalDonated",
          "type": "uint256"
        },
        {
          "internalType": "uint256",
          "name": "createdAt",
          "type": "uint256"
        },
        {
          "internalType": "uint256",
          "name": "deadline",
          "type": "uint256"
        },
        {
          "internalType": "bool",
          "name": "active",
          "type": "bool"
        },
        {
          "internalType": "bool",
          "name": "exists",
          "type": "bool"
        },
        {
          "internalType": "bool",
          "name": "funded",
          "type": "bool"
        },
        {
          "internalType": "bool",
          "name": "cancelled",
          "type": "bool"
        }
      ],
      "stateMutability": "view",
      "type": "function"
    },
    {
      "inputs": [
        {
          "internalType": "uint256",
          "name": "",
          "type": "uint256"
        }
      ],
      "name": "campaigns",
      "outputs": [
        {
          "internalType": "uint256",
          "name": "id",
          "type": "uint256"
        },
        {
          "internalType": "string",
          "name": "name",
          "type": "string"
        },
        {
          "internalType": "string",
          "name": "description",
          "type": "string"
        },
        {
          "internalType": "address",
          "name": "creator",
          "type": "address"
        },
        {
          "internalType": "uint256",
          "name": "goalAmount",
          "type": "uint256"
        },
        {
          "internalType": "uint256",
          "name": "totalDonated",
          "type": "uint256"
        },
        {
          "internalType": "uint256",
          "name": "createdAt",
          "type": "uint256"
        },
        {
          "internalType": "uint256",
          "name": "deadline",
          "type": "uint256"
        },
        {
          "internalType": "bool",
          "name": "active",
          "type": "bool"
        },
        {
          "internalType": "bool",
          "name": "exists",
          "type": "bool"
        },
        {
          "internalType": "bool",
          "name": "funded",
          "type": "bool"
        },
        {
          "internalType": "bool",
          "name": "cancelled",
          "type": "bool"
        }
      ],
      "stateMutability": "view",
      "type": "function"
    },
    {
      "inputs": [
        {
          "internalType": "uint256",
          "name": "_campaignId",
          "type": "uint256"
        }
      ],
      "name": "cancelCampaign",
      "outputs": [],
      "stateMutability": "nonpayable",
      "type": "function"
    },
    {
      "inputs": [
        {
          "internalType": "string",
          "name": "_name",
          "type": "string"
        },
        {
          "internalType": "string",
          "name": "_description",
          "type": "string"
        },
        {
          "internalType": "uint256",
          "name": "_goalAmount",
          "type": "uint256"
        },
        {
          "internalType": "uint256",
          "name": "_durationInDays",
          "type": "uint256"
        }
      ],
      "name": "createCampaign",
      "outputs": [
        {
          "internalType": "uint256",
          "name": "",
          "type": "uint256"
        }
      ],
      "stateMutability": "nonpayable",
      "type": "function"
    },
    {
      "inputs": [
        {
          "internalType": "address",
          "name": "token",
          "type": "address"
        },
        {
          "internalType": "uint256",
          "name": "_campaignId",
          "type": "uint256"
        },
        {
          "internalType": "uint256",
          "name": "_amount",
          "type": "uint256"
        }
      ],
      "name": "donateToCampaign",
      "outputs": [
        {
          "internalType": "bool",
          "name": "",
          "type": "bool"
        }
      ],
      "stateMutability": "nonpayable",
      "type": "function"
    },
    {
      "inputs": [
        {
          "internalType": "uint256",
          "name": "",
          "type": "uint256"
        },
        {
          "internalType": "address",
          "name": "",
          "type": "address"
        },
        {
          "internalType": "address",
          "name": "",
          "type": "address"
        }
      ],
      "name": "donorContributions",
      "outputs": [
        {
          "internalType": "uint256",
          "name": "",
          "type": "uint256"
        }
      ],
      "stateMutability": "view",
      "type": "function"
    },
    {
      "inputs": [],
      "name": "getAllCampaigns",
      "outputs": [
        {
          "components": [
            {
              "internalType": "uint256",
              "name": "id",
              "type": "uint256"
            },
            {
              "internalType": "string",
              "name": "name",
              "type": "string"
            },
            {
              "internalType": "string",
              "name": "description",
              "type": "string"
            },
            {
              "internalType": "address",
              "name": "creator",
              "type": "address"
            },
            {
              "internalType": "uint256",
              "name": "goalAmount",
              "type": "uint256"
            },
            {
              "internalType": "uint256",
              "name": "totalDonated",
              "type": "uint256"
            },
            {
              "internalType": "uint256",
              "name": "createdAt",
              "type": "uint256"
            },
            {
              "internalType": "uint256",
              "name": "deadline",
              "type": "uint256"
            },
            {
              "internalType": "bool",
              "name": "active",
              "type": "bool"
            },
            {
              "internalType": "bool",
              "name": "exists",
              "type": "bool"
            },
            {
              "internalType": "bool",
              "name": "funded",
              "type": "bool"
            },
            {
              "internalType": "bool",
              "name": "cancelled",
              "type": "bool"
            }
          ],
          "internalType": "struct DonorContract.Campaign[]",
          "name": "",
          "type": "tuple[]"
        }
      ],
      "stateMutability": "view",
      "type": "function"
    },
    {
      "inputs": [
        {
          "internalType": "uint256",
          "name": "_campaignId",
          "type": "uint256"
        }
      ],
      "name": "getCampaignById",
      "outputs": [
        {
          "components": [
            {
              "internalType": "uint256",
              "name": "id",
              "type": "uint256"
            },
            {
              "internalType": "string",
              "name": "name",
              "type": "string"
            },
            {
              "internalType": "string",
              "name": "description",
              "type": "string"
            },
            {
              "internalType": "address",
              "name": "creator",
              "type": "address"
            },
            {
              "internalType": "uint256",
              "name": "goalAmount",
              "type": "uint256"
            },
            {
              "internalType": "uint256",
              "name": "totalDonated",
              "type": "uint256"
            },
            {
              "internalType": "uint256",
              "name": "createdAt",
              "type": "uint256"
            },
            {
              "internalType": "uint256",
              "name": "deadline",
              "type": "uint256"
            },
            {
              "internalType": "bool",
              "name": "active",
              "type": "bool"
            },
            {
              "internalType": "bool",
              "name": "exists",
              "type": "bool"
            },
            {
              "internalType": "bool",
              "name": "funded",
              "type": "bool"
            },
            {
              "internalType": "bool",
              "name": "cancelled",
              "type": "bool"
            }
          ],
          "internalType": "struct DonorContract.Campaign",
          "name": "",
          "type": "tuple"
        }
      ],
      "stateMutability": "view",
      "type": "function"
    },
    {
      "inputs": [
        {
          "internalType": "uint256",
          "name": "_campaignId",
          "type": "uint256"
        }
      ],
      "name": "getCampaignDonations",
      "outputs": [
        {
          "components": [
            {
              "internalType": "address",
              "name": "donor",
              "type": "address"
            },
            {
              "internalType": "uint256",
              "name": "amount",
              "type": "uint256"
            },
            {
              "internalType": "uint256",
              "name": "timestamp",
              "type": "uint256"
            }
          ],
          "internalType": "struct DonorContract.Donation[]",
          "name": "",
          "type": "tuple[]"
        }
      ],
      "stateMutability": "view",
      "type": "function"
    },
    {
      "inputs": [
        {
          "internalType": "uint256",
          "name": "_campaignId",
          "type": "uint256"
        },
        {
          "internalType": "address",
          "name": "token",
          "type": "address"
        }
      ],
      "name": "getCampaignFundsByToken",
      "outputs": [
        {
          "internalType": "uint256",
          "name": "",
          "type": "uint256"
        }
      ],
      "stateMutability": "view",
      "type": "function"
    },
    {
      "inputs": [
        {
          "internalType": "bytes32",
          "name": "role",
          "type": "bytes32"
        }
      ],
      "name": "getRoleAdmin",
      "outputs": [
        {
          "internalType": "bytes32",
          "name": "",
          "type": "bytes32"
        }
      ],
      "stateMutability": "view",
      "type": "function"
    },
    {
      "inputs": [
        {
          "internalType": "bytes32",
          "name": "role",
          "type": "bytes32"
        },
        {
          "internalType": "uint256",
          "name": "index",
          "type": "uint256"
        }
      ],
      "name": "getRoleMember",
      "outputs": [
        {
          "internalType": "address",
          "name": "",
          "type": "address"
        }
      ],
      "stateMutability": "view",
      "type": "function"
    },
    {
      "inputs": [
        {
          "internalType": "bytes32",
          "name": "role",
          "type": "bytes32"
        }
      ],
      "name": "getRoleMemberCount",
      "outputs": [
        {
          "internalType": "uint256",
          "name": "",
          "type": "uint256"
        }
      ],
      "stateMutability": "view",
      "type": "function"
    },
    {
      "inputs": [
        {
          "internalType": "bytes32",
          "name": "role",
          "type": "bytes32"
        },
        {
          "internalType": "address",
          "name": "account",
          "type": "address"
        }
      ],
      "name": "grantRole",
      "outputs": [],
      "stateMutability": "nonpayable",
      "type": "function"
    },
    {
      "inputs": [
        {
          "internalType": "bytes32",
          "name": "role",
          "type": "bytes32"
        },
        {
          "internalType": "address",
          "name": "account",
          "type": "address"
        }
      ],
      "name": "hasRole",
      "outputs": [
        {
          "internalType": "bool",
          "name": "",
          "type": "bool"
        }
      ],
      "stateMutability": "view",
      "type": "function"
    },
    {
      "inputs": [
        {
          "internalType": "uint256",
          "name": "_campaignId",
          "type": "uint256"
        }
      ],
      "name": "isCampaignSuccessful",
      "outputs": [
        {
          "internalType": "bool",
          "name": "",
          "type": "bool"
        }
      ],
      "stateMutability": "view",
      "type": "function"
    },
    {
      "inputs": [
        {
          "internalType": "uint256",
          "name": "_campaignId",
          "type": "uint256"
        },
        {
          "internalType": "address",
          "name": "token",
          "type": "address"
        }
      ],
      "name": "refundDonation",
      "outputs": [],
      "stateMutability": "nonpayable",
      "type": "function"
    },
    {
      "inputs": [
        {
          "internalType": "bytes32",
          "name": "role",
          "type": "bytes32"
        },
        {
          "internalType": "address",
          "name": "account",
          "type": "address"
        }
      ],
      "name": "renounceRole",
      "outputs": [],
      "stateMutability": "nonpayable",
      "type": "function"
    },
    {
      "inputs": [
        {
          "internalType": "bytes32",
          "name": "role",
          "type": "bytes32"
        },
        {
          "internalType": "address",
          "name": "account",
          "type": "address"
        }
      ],
      "name": "revokeRole",
      "outputs": [],
      "stateMutability": "nonpayable",
      "type": "function"
    },
    {
      "inputs": [
        {
          "internalType": "address",
          "name": "token",
          "type": "address"
        },
        {
          "internalType": "bool",
          "name": "allowed",
          "type": "bool"
        }
      ],
      "name": "setAllowedToken",
      "outputs": [],
      "stateMutability": "nonpayable",
      "type": "function"
    },
    {
      "inputs": [
        {
          "internalType": "bytes4",
          "name": "interfaceId",
          "type": "bytes4"
        }
      ],
      "name": "supportsInterface",
      "outputs": [
        {
          "internalType": "bool",
          "name": "",
          "type": "bool"
        }
      ],
      "stateMutability": "view",
      "type": "function"
    },
    {
      "inputs": [
        {
          "internalType": "uint256",
          "name": "",
          "type": "uint256"
        },
        {
          "internalType": "address",
          "name": "",
          "type": "address"
        }
      ],
      "name": "tokenWithdrawn",
      "outputs": [
        {
          "internalType": "bool",
          "name": "",
          "type": "bool"
        }
      ],
      "stateMutability": "view",
      "type": "function"
    },
    {
      "inputs": [
        {
          "internalType": "address",
          "name": "token",
          "type": "address"
        },
        {
          "internalType": "uint256",
          "name": "_campaignId",
          "type": "uint256"
        }
      ],
      "name": "withdrawFunds",
      "outputs": [],
      "stateMutability": "nonpayable",
      "type": "function"
    }
  ],
  "bytecode": "0x6080604052600160035534801561001557600080fd5b50600160009081556100279033610056565b6100517f74f7a545c65c11839a48d7453738b30c295408df2d944516167556759ddc6d0633610056565b610172565b610060828261007d565b60008281526002602052604090206100789082610105565b505050565b60008281526001602090815260408083206001600160a01b038516845290915290205460ff166101015760008281526001602081815260408084206001600160a01b0386168086529252808420805460ff19169093179092559051339285917f2f8788117e7eff1d82e926ec794901d17c78024a50270940304540a733656f0d9190a45b5050565b600061011a836001600160a01b038416610123565b90505b92915050565b600081815260018301602052604081205461016a5750815460018181018455600084815260208082209093018490558454848252828601909352604090209190915561011d565b50600061011d565b61314e806101816000396000f3fe608060405234801561001057600080fd5b50600436106101da5760003560e01c80638c7bc83811610104578063c1075329116100a2578063d547741f11610071578063d547741f146104cd578063d567f1ae146104e0578063e6ffcaa1146104f3578063e744092e1461051357600080fd5b8063c107532914610459578063c2840e601461046c578063c7fe4e5414610493578063ca15c873146104ba57600080fd5b8063a217fddf116100de578063a217fddf146103d8578063a318f269146103e0578063afbbc685146103f3578063bbb858f91461042b57600080fd5b80638c7bc8381461038f5780639010d07c1461039a57806391d14854146103c557600080fd5b806345598b4a1161017c5780637f5d25ed1161014b5780637f5d25ed1461032357806384fdb39f1461035457806386cdf604146103675780638aaa22841461037c57600080fd5b806345598b4a146102b25780635167642f146102c5578063564a7ac1146102e55780635a3915cd1461031057600080fd5b8063248a9ca3116101b8578063248a9ca3146102455780632f2ff15d1461027757806336568abe1461028c57806338e7a8131461029f57600080fd5b806301ffc9a7146101df57806306db57bb14610207578063141961bc1461021a575b600080fd5b6101f26101ed3660046128a4565b610536565b60405190151581526020015b60405180910390f35b6101f26102153660046128ce565b610561565b61022d6102283660046128ce565b610784565b6040516101fe9c9b9a99989796959493929190612937565b6102696102533660046128ce565b6000908152600160208190526040909120015490565b6040519081526020016101fe565b61028a6102853660046129e4565b61091a565b005b61028a61029a3660046129e4565b610945565b61022d6102ad3660046128ce565b6109c3565b61028a6102c03660046128ce565b6109e5565b6102d86102d33660046128ce565b610b84565b6040516101fe9190612a10565b6102696102f33660046129e4565b600560209081526000928352604080842090915290825290205481565b6101f261031e366004612a75565b610c46565b610269610331366004612aa8565b600860209081526000938452604080852082529284528284209052825290205481565b61028a6103623660046129e4565b610f8b565b61036f611129565b6040516101fe9190612bc3565b61028a61038a366004612c36565b611337565b6102696301e1338081565b6103ad6103a8366004612c6d565b6113c1565b6040516001600160a01b0390911681526020016101fe565b6101f26103d33660046129e4565b6113d9565b610269600081565b6102696103ee366004612d34565b611404565b610406610401366004612c6d565b61192c565b604080516001600160a01b0390941684526020840192909252908201526060016101fe565b6101f26104393660046129e4565b600960209081526000928352604080842090915290825290205460ff1681565b61028a610467366004612dad565b611978565b6102697f74f7a545c65c11839a48d7453738b30c295408df2d944516167556759ddc6d0681565b6102697faabecfdf6c789f9fb8a93bd3a33e66be61c9d95c3d88fbe57f4acd20b6d738f881565b6102696104c83660046128ce565b611d92565b61028a6104db3660046129e4565b611da9565b6102696104ee3660046129e4565b611dcf565b6105066105013660046128ce565b611e2e565b6040516101fe9190612dd7565b6101f2610521366004612dea565b60066020526000908152604090205460ff1681565b60006001600160e01b03198216635a05180f60e01b148061055b575061055b826120a7565b92915050565b600081815260046020526040812060080154610100900460ff166105a05760405162461bcd60e51b815260040161059790612e05565b60405180910390fd5b60006004600084815260200190815260200160002060405180610180016040529081600082015481526020016001820180546105db90612e3c565b80601f016020809104026020016040519081016040528092919081815260200182805461060790612e3c565b80156106545780601f1061062957610100808354040283529160200191610654565b820191906000526020600020905b81548152906001019060200180831161063757829003601f168201915b5050505050815260200160028201805461066d90612e3c565b80601f016020809104026020016040519081016040528092919081815260200182805461069990612e3c565b80156106e65780601f106106bb576101008083540402835291602001916106e6565b820191906000526020600020905b8154815290600101906020018083116106c957829003601f168201915b505050918352505060038201546001600160a01b0316602082015260048201546040820152600582015460608201526006820154608080830191909152600783015460a08084019190915260089093015460ff808216151560c08501526101008083048216151560e0860152620100008304821615159085015263010000009091041615156101209092019190915282015191015110159392505050565b600a818154811061079457600080fd5b600091825260209091206009909102018054600182018054919350906107b990612e3c565b80601f01602080910402602001604051908101604052809291908181526020018280546107e590612e3c565b80156108325780601f1061080757610100808354040283529160200191610832565b820191906000526020600020905b81548152906001019060200180831161081557829003601f168201915b50505050509080600201805461084790612e3c565b80601f016020809104026020016040519081016040528092919081815260200182805461087390612e3c565b80156108c05780601f10610895576101008083540402835291602001916108c0565b820191906000526020600020905b8154815290600101906020018083116108a357829003601f168201915b5050506003840154600485015460058601546006870154600788015460089098015496976001600160a01b0390941696929550909350919060ff80821691610100810482169162010000820481169163010000009004168c565b60008281526001602081905260409091200154610936816120dc565b61094083836120e9565b505050565b6001600160a01b03811633146109b55760405162461bcd60e51b815260206004820152602f60248201527f416363657373436f6e74726f6c3a2063616e206f6e6c792072656e6f756e636560448201526e103937b632b9903337b91039b2b63360891b6064820152608401610597565b6109bf828261210b565b5050565b600460205260009081526040902080546001820180549192916107b990612e3c565b60008181526004602052604090206008810154610100900460ff16610a1c5760405162461bcd60e51b815260040161059790612e05565b60038101546001600160a01b0316331480610a3d5750610a3d6000336113d9565b610a895760405162461bcd60e51b815260206004820152601860248201527f4e6f7420617574686f72697a656420746f2063616e63656c00000000000000006044820152606401610597565b600881015462010000900460ff1615610ae45760405162461bcd60e51b815260206004820152601760248201527f43616d706169676e20616c72656164792066756e6465640000000000000000006044820152606401610597565b60088101546301000000900460ff1615610b405760405162461bcd60e51b815260206004820152601a60248201527f43616d706169676e20616c72656164792063616e63656c6c65640000000000006044820152606401610597565b60088101805463ff0000ff1916630100000017905560405182907f403b6718db13878ac16c27decb08f09d3a10f116c7c25af575ff5bfbc11ae9e690600090a25050565b600081815260046020526040902060080154606090610100900460ff16610bbd5760405162461bcd60e51b815260040161059790612e05565b600082815260076020908152604080832080548251818502810185019093528083529193909284015b82821015610c3b576000848152602090819020604080516060810182526003860290920180546001600160a01b0316835260018082015484860152600290910154918301919091529083529092019101610be6565b505050509050919050565b6000610c5061212d565b6001600160a01b03841660009081526006602052604090205460ff16610cae5760405162461bcd60e51b8152602060048201526013602482015272151bdad95b881b9bdd081cdd5c1c1bdc9d1959606a1b6044820152606401610597565b600083815260046020526040902060080154610100900460ff16610ce45760405162461bcd60e51b815260040161059790612e05565b60008211610d465760405162461bcd60e51b815260206004820152602960248201527f446f6e6174696f6e20616d6f756e74206d7573742062652067726561746572206044820152687468616e207a65726f60b81b6064820152608401610597565b60008381526004602052604090206008015460ff16610da05760405162461bcd60e51b815260206004820152601660248201527543616d706169676e206973206e6f742061637469766560501b6044820152606401610597565b6000838152600460205260409020600801546301000000900460ff1615610e015760405162461bcd60e51b815260206004820152601560248201527410d85b5c185a59db881a5cc818d85b98d95b1b1959605a1b6044820152606401610597565b600083815260046020526040902060070154421115610e575760405162461bcd60e51b815260206004820152601260248201527110d85b5c185a59db881a185cc8195b99195960721b6044820152606401610597565b610e6c6001600160a01b038516333085612186565b60008381526004602052604081206005018054849290610e8d908490612e8c565b909155505060008381526005602090815260408083206001600160a01b038816845290915281208054849290610ec4908490612e8c565b9091555050600083815260076020908152604080832081516060810183523380825281850188815242838601908152845460018082018755958952978790209351600390980290930180546001600160a01b0319166001600160a01b03988916178155905193810193909355905160029092019190915581519388168452918301859052909185917f72ea702afc24965f735ac4ac552f859b352084ad99f47a425a691630814014fe910160405180910390a3506001610f846001600055565b9392505050565b610f9361212d565b600082815260046020526040902060088101546301000000900460ff16610ffc5760405162461bcd60e51b815260206004820152601960248201527f43616d706169676e206973206e6f742063616e63656c6c6564000000000000006044820152606401610597565b600083815260086020908152604080832033845282528083206001600160a01b03861684529091529020548061106c5760405162461bcd60e51b8152602060048201526015602482015274139bc8191bdb985d1a5bdb881d1bc81c99599d5b99605a1b6044820152606401610597565b600084815260086020908152604080832033845282528083206001600160a01b03871680855290835281842084905587845260058352818420908452909152812080548392906110bd908490612e9f565b909155506110d790506001600160a01b03841633836121f7565b604080516001600160a01b038516815260208101839052339186917f0871598c62fbea849824d5895fc3129036798cca146dbf42e3284d97c284597f910160405180910390a350506109bf6001600055565b6060600a805480602002602001604051908101604052809291908181526020016000905b8282101561132e5783829060005260206000209060090201604051806101800160405290816000820154815260200160018201805461118b90612e3c565b80601f01602080910402602001604051908101604052809291908181526020018280546111b790612e3c565b80156112045780601f106111d957610100808354040283529160200191611204565b820191906000526020600020905b8154815290600101906020018083116111e757829003601f168201915b5050505050815260200160028201805461121d90612e3c565b80601f016020809104026020016040519081016040528092919081815260200182805461124990612e3c565b80156112965780601f1061126b57610100808354040283529160200191611296565b820191906000526020600020905b81548152906001019060200180831161127957829003601f168201915b505050918352505060038201546001600160a01b0316602080830191909152600483015460408301526005830154606083015260068301546080830152600783015460a083015260089092015460ff808216151560c08401526101008083048216151560e08501526201000083048216151590840152630100000090910416151561012090910152908252600192909201910161114d565b50505050905090565b7f74f7a545c65c11839a48d7453738b30c295408df2d944516167556759ddc6d06611361816120dc565b6001600160a01b038316600081815260066020908152604091829020805460ff191686151590811790915591519182527f9a8e30a8658b96ab3f034ce4bac6806278b4aee5880ccdd1ac35e4ed5bb31d23910160405180910390a2505050565b6000828152600260205260408120610f849083612227565b60009182526001602090815260408084206001600160a01b0393909316845291905290205460ff1690565b60008085511161144d5760405162461bcd60e51b81526020600482015260146024820152734e616d652063616e6e6f7420626520656d70747960601b6044820152606401610597565b600083116114ab5760405162461bcd60e51b815260206004820152602560248201527f476f616c20616d6f756e74206d7573742062652067726561746572207468616e604482015264207a65726f60d81b6064820152608401610597565b6000821180156114bd575061016d8211155b6114fc5760405162461bcd60e51b815260206004820152601060248201526f24b73b30b634b210323ab930ba34b7b760811b6044820152606401610597565b600354600081815260046020526040902060080154610100900460ff16156115665760405162461bcd60e51b815260206004820152601760248201527f43616d706169676e20616c7265616479206578697374730000000000000000006044820152606401610597565b60006115758462015180612eb2565b61157f9042612e8c565b905061158f6301e1338042612e8c565b8111156115d25760405162461bcd60e51b81526020600482015260116024820152704475726174696f6e20746f6f206c6f6e6760781b6044820152606401610597565b604080516101808101825283815260208082018a81528284018a905233606084015260808301899052600060a084018190524260c085015260e08401869052600161010085018190526101208501819052610140850182905261016085018290528782526004909352939093208251815592519192839290918201906116589082612f17565b506040820151600282019061166d9082612f17565b5060608201516003820180546001600160a01b0319166001600160a01b039092169190911790556080820151600482015560a0820151600582015560c0820151600682015560e0820151600782015561010080830151600890920180546101208501516101408601516101609096015161ffff1990921694151561ff001916949094179315159092029290921763ffff00001916620100009315159390930263ff000000191692909217630100000092151592909202919091179055600a805460018101825560009190915281517fc65a7bb8d6351c1cf70c95a316cc6a92839c986682d98bc35f958f4883f9d2a86009909202918201908155602083015183927fc65a7bb8d6351c1cf70c95a316cc6a92839c986682d98bc35f958f4883f9d2a9019061179b9082612f17565b50604082015160028201906117b09082612f17565b5060608201516003820180546001600160a01b0319166001600160a01b039092169190911790556080820151600482015560a0820151600582015560c0820151600682015560e0820151600782015561010080830151600890920180546101208501516101408601516101609096015161ffff1990921694151561ff001916949094179315159092029290921763ffff00001916620100009315159390930263ff0000001916929092176301000000921515929092029190911790556118967faabecfdf6c789f9fb8a93bd3a33e66be61c9d95c3d88fbe57f4acd20b6d738f8336120e9565b604051339084907f883479554ab3934aa8f7a2a39a33bbf02dad4d1ba4544a7ac9bae6d0537ed57d90600090a3336001600160a01b0316837fdc26653af5b99b2da33e2ad69ee6600d9aeccc82b034501db4338309615ca2388a898660405161190193929190612fd6565b60405180910390a36003805490600061191983612ffb565b909155509293505050505b949350505050565b6007602052816000526040600020818154811061194857600080fd5b60009182526020909120600390910201805460018201546002909201546001600160a01b03909116935090915083565b61198061212d565b60008181526004602052604090206008810154610100900460ff166119b75760405162461bcd60e51b815260040161059790612e05565b60038101546001600160a01b03163314611a135760405162461bcd60e51b815260206004820152601960248201527f4f6e6c792063726561746f722063616e207769746864726177000000000000006044820152606401610597565b600881015460ff16611a605760405162461bcd60e51b815260206004820152601660248201527543616d706169676e206973206e6f742061637469766560501b6044820152606401610597565b600881015462010000900460ff1615611abb5760405162461bcd60e51b815260206004820152601760248201527f46756e647320616c72656164792077697468647261776e0000000000000000006044820152606401610597565b60088101546301000000900460ff1615611b0f5760405162461bcd60e51b815260206004820152601560248201527410d85b5c185a59db881a5cc818d85b98d95b1b1959605a1b6044820152606401610597565b611b397faabecfdf6c789f9fb8a93bd3a33e66be61c9d95c3d88fbe57f4acd20b6d738f8336113d9565b611b765760405162461bcd60e51b815260206004820152600e60248201526d139bdd08185d5d1a1bdc9a5e995960921b6044820152606401610597565b60008281526009602090815260408083206001600160a01b038716845290915290205460ff1615611be95760405162461bcd60e51b815260206004820152601760248201527f546f6b656e20616c72656164792077697468647261776e0000000000000000006044820152606401610597565b600081600401548260050154101590506000826007015442118015611c12575060008360050154115b90508180611c1d5750805b611c5f5760405162461bcd60e51b815260206004820152601360248201527210d85b9b9bdd081dda5d1a191c985dc81e595d606a1b6044820152606401610597565b60008481526005602090815260408083206001600160a01b038916845290915290205480611cdb5760405162461bcd60e51b815260206004820152602360248201527f4e6f2066756e647320746f20776974686472617720666f72207468697320746f60448201526235b2b760e91b6064820152608401610597565b60008581526009602090815260408083206001600160a01b038a16808552908352818420805460ff191660011790558884526005835281842081855290925282209190915560088501805462ff00ff191662010000179055611d3e9033836121f7565b604080516001600160a01b038816815260208101839052339187917f9467881c16409d70790ef2aa073424972ede02854453f7ff5036d66e860ee42f910160405180910390a3505050506109bf6001600055565b600081815260026020526040812061055b90612233565b60008281526001602081905260409091200154611dc5816120dc565b610940838361210b565b600082815260046020526040812060080154610100900460ff16611e055760405162461bcd60e51b815260040161059790612e05565b5060009182526005602090815260408084206001600160a01b0393909316845291905290205490565b611ea360405180610180016040528060008152602001606081526020016060815260200160006001600160a01b03168152602001600081526020016000815260200160008152602001600081526020016000151581526020016000151581526020016000151581526020016000151581525090565b600082815260046020526040902060080154610100900460ff16611ed95760405162461bcd60e51b815260040161059790612e05565b600460008381526020019081526020016000206040518061018001604052908160008201548152602001600182018054611f1290612e3c565b80601f0160208091040260200160405190810160405280929190818152602001828054611f3e90612e3c565b8015611f8b5780601f10611f6057610100808354040283529160200191611f8b565b820191906000526020600020905b815481529060010190602001808311611f6e57829003601f168201915b50505050508152602001600282018054611fa490612e3c565b80601f0160208091040260200160405190810160405280929190818152602001828054611fd090612e3c565b801561201d5780601f10611ff25761010080835404028352916020019161201d565b820191906000526020600020905b81548152906001019060200180831161200057829003601f168201915b505050918352505060038201546001600160a01b03166020820152600482015460408201526005820154606082015260068201546080820152600782015460a082015260089091015460ff808216151560c08401526101008083048216151560e0850152620100008304821615159084015263010000009091041615156101209091015292915050565b60006001600160e01b03198216637965db0b60e01b148061055b57506301ffc9a760e01b6001600160e01b031983161461055b565b6120e6813361223d565b50565b6120f38282612296565b60008281526002602052604090206109409082612301565b6121158282612316565b6000828152600260205260409020610940908261237d565b60026000540361217f5760405162461bcd60e51b815260206004820152601f60248201527f5265656e7472616e637947756172643a207265656e7472616e742063616c6c006044820152606401610597565b6002600055565b6040516001600160a01b03808516602483015283166044820152606481018290526121f19085906323b872dd60e01b906084015b60408051601f198184030181529190526020810180516001600160e01b03166001600160e01b031990931692909217909152612392565b50505050565b6040516001600160a01b03831660248201526044810182905261094090849063a9059cbb60e01b906064016121ba565b6000610f848383612467565b600061055b825490565b61224782826113d9565b6109bf5761225481612491565b61225f8360206124a3565b604051602001612270929190613014565b60408051601f198184030181529082905262461bcd60e51b825261059791600401613089565b6122a082826113d9565b6109bf5760008281526001602081815260408084206001600160a01b0386168086529252808420805460ff19169093179092559051339285917f2f8788117e7eff1d82e926ec794901d17c78024a50270940304540a733656f0d9190a45050565b6000610f84836001600160a01b03841661263f565b61232082826113d9565b156109bf5760008281526001602090815260408083206001600160a01b0385168085529252808320805460ff1916905551339285917ff6391f5c32d9c69d2a47ea670b442974b53935d1edc7fd64eb21e047a839171b9190a45050565b6000610f84836001600160a01b03841661268e565b60006123e7826040518060400160405280602081526020017f5361666545524332303a206c6f772d6c6576656c2063616c6c206661696c6564815250856001600160a01b03166127819092919063ffffffff16565b9050805160001480612408575080806020019051810190612408919061309c565b6109405760405162461bcd60e51b815260206004820152602a60248201527f5361666545524332303a204552433230206f7065726174696f6e20646964206e6044820152691bdd081cdd58d8d9595960b21b6064820152608401610597565b600082600001828154811061247e5761247e6130b9565b9060005260206000200154905092915050565b606061055b6001600160a01b03831660145b606060006124b2836002612eb2565b6124bd906002612e8c565b67ffffffffffffffff8111156124d5576124d5612c8f565b6040519080825280601f01601f1916602001820160405280156124ff576020820181803683370190505b509050600360fc1b8160008151811061251a5761251a6130b9565b60200101906001600160f81b031916908160001a905350600f60fb1b81600181518110612549576125496130b9565b60200101906001600160f81b031916908160001a905350600061256d846002612eb2565b612578906001612e8c565b90505b60018111156125f0576f181899199a1a9b1b9c1cb0b131b232b360811b85600f16601081106125ac576125ac6130b9565b1a60f81b8282815181106125c2576125c26130b9565b60200101906001600160f81b031916908160001a90535060049490941c936125e9816130cf565b905061257b565b508315610f845760405162461bcd60e51b815260206004820181905260248201527f537472696e67733a20686578206c656e67746820696e73756666696369656e746044820152606401610597565b60008181526001830160205260408120546126865750815460018181018455600084815260208082209093018490558454848252828601909352604090209190915561055b565b50600061055b565b600081815260018301602052604081205480156127775760006126b2600183612e9f565b85549091506000906126c690600190612e9f565b905081811461272b5760008660000182815481106126e6576126e66130b9565b9060005260206000200154905080876000018481548110612709576127096130b9565b6000918252602080832090910192909255918252600188019052604090208390555b855486908061273c5761273c6130e6565b60019003818190600052602060002001600090559055856001016000868152602001908152602001600020600090556001935050505061055b565b600091505061055b565b6060611924848460008585600080866001600160a01b031685876040516127a891906130fc565b60006040518083038185875af1925050503d80600081146127e5576040519150601f19603f3d011682016040523d82523d6000602084013e6127ea565b606091505b50915091506127fb87838387612806565b979650505050505050565b6060831561287557825160000361286e576001600160a01b0385163b61286e5760405162461bcd60e51b815260206004820152601d60248201527f416464726573733a2063616c6c20746f206e6f6e2d636f6e74726163740000006044820152606401610597565b5081611924565b611924838381511561288a5781518083602001fd5b8060405162461bcd60e51b81526004016105979190613089565b6000602082840312156128b657600080fd5b81356001600160e01b031981168114610f8457600080fd5b6000602082840312156128e057600080fd5b5035919050565b60005b838110156129025781810151838201526020016128ea565b50506000910152565b600081518084526129238160208601602086016128e7565b601f01601f19169290920160200192915050565b8c81526101806020820152600061295261018083018e61290b565b8281036040840152612964818e61290b565b91505060018060a01b038b1660608301528960808301528860a08301528760c08301528660e08301528515156101008301528415156101208301526129ae61014083018515159052565b8215156101608301529d9c50505050505050505050505050565b80356001600160a01b03811681146129df57600080fd5b919050565b600080604083850312156129f757600080fd5b82359150612a07602084016129c8565b90509250929050565b602080825282518282018190526000918401906040840190835b81811015612a6a57835180516001600160a01b03168452602080820151818601526040918201519185019190915290930192606090920191600101612a2a565b509095945050505050565b600080600060608486031215612a8a57600080fd5b612a93846129c8565b95602085013595506040909401359392505050565b600080600060608486031215612abd57600080fd5b83359250612acd602085016129c8565b9150612adb604085016129c8565b90509250925092565b80518252600060208201516101806020850152612b0561018085018261290b565b905060408301518482036040860152612b1e828261290b565b9150506060830151612b3b60608601826001600160a01b03169052565b506080830151608085015260a083015160a085015260c083015160c085015260e083015160e0850152610100830151612b7961010086018215159052565b50610120830151612b8f61012086018215159052565b50610140830151612ba561014086018215159052565b50610160830151612bbb61016086018215159052565b509392505050565b6000602082016020835280845180835260408501915060408160051b86010192506020860160005b82811015612c1c57603f19878603018452612c07858351612ae4565b94506020938401939190910190600101612beb565b50929695505050505050565b80151581146120e657600080fd5b60008060408385031215612c4957600080fd5b612c52836129c8565b91506020830135612c6281612c28565b809150509250929050565b60008060408385031215612c8057600080fd5b50508035926020909101359150565b634e487b7160e01b600052604160045260246000fd5b600082601f830112612cb657600080fd5b813567ffffffffffffffff811115612cd057612cd0612c8f565b604051601f8201601f19908116603f0116810167ffffffffffffffff81118282101715612cff57612cff612c8f565b604052818152838201602001851015612d1757600080fd5b816020850160208301376000918101602001919091529392505050565b60008060008060808587031215612d4a57600080fd5b843567ffffffffffffffff811115612d6157600080fd5b612d6d87828801612ca5565b945050602085013567ffffffffffffffff811115612d8a57600080fd5b612d9687828801612ca5565b949794965050505060408301359260600135919050565b60008060408385031215612dc057600080fd5b612dc9836129c8565b946020939093013593505050565b602081526000610f846020830184612ae4565b600060208284031215612dfc57600080fd5b610f84826129c8565b60208082526017908201527f43616d706169676e20646f6573206e6f74206578697374000000000000000000604082015260600190565b600181811c90821680612e5057607f821691505b602082108103612e7057634e487b7160e01b600052602260045260246000fd5b50919050565b634e487b7160e01b600052601160045260246000fd5b8082018082111561055b5761055b612e76565b8181038181111561055b5761055b612e76565b808202811582820484141761055b5761055b612e76565b601f82111561094057806000526020600020601f840160051c81016020851015612ef05750805b601f840160051c820191505b81811015612f105760008155600101612efc565b5050505050565b815167ffffffffffffffff811115612f3157612f31612c8f565b612f4581612f3f8454612e3c565b84612ec9565b6020601f821160018114612f795760008315612f615750848201515b600019600385901b1c1916600184901b178455612f10565b600084815260208120601f198516915b82811015612fa95787850151825560209485019460019092019101612f89565b5084821015612fc75786840151600019600387901b60f8161c191681555b50505050600190811b01905550565b606081526000612fe9606083018661290b565b60208301949094525060400152919050565b60006001820161300d5761300d612e76565b5060010190565b7f416363657373436f6e74726f6c3a206163636f756e742000000000000000000081526000835161304c8160178501602088016128e7565b7001034b99036b4b9b9b4b733903937b6329607d1b601791840191820152835161307d8160288401602088016128e7565b01602801949350505050565b602081526000610f84602083018461290b565b6000602082840312156130ae57600080fd5b8151610f8481612c28565b634e487b7160e01b600052603260045260246000fd5b6000816130de576130de612e76565b506000190190565b634e487b7160e01b600052603160045260246000fd5b6000825161310e8184602087016128e7565b919091019291505056fea2646970667358221220a3a6d5b16036301945458c252cc2d813706f3f50066be7826288d00e3d75f8f864736f6c634300081b0033",
  "linkReferences": {},
  "deployedLinkReferences": {}
}