{
  "_format": "hh-sol-artifact-1",
  "contractName": "WBTC",
  "sourceName": "contracts/WBTC.sol",
  "abi": [
    {
      "inputs": [],
      "stateMutability": "nonpayable",
      "type": "constructor"
    },
    {
      "anonymous": false,
      "inputs": [
        {
          "indexed": true,
          "internalType": "address",
          "name": "owner",
          "type": "address"
        },
        {
          "indexed": true,
          "internalType": "address",
          "name": "spender",
          "type": "address"
        },
        {
          "indexed": false,
          "internalType": "uint256",
          "name": "value",
          "type": "uint256"
        }
      ],
      "name": "Approval",
      "type": "event"
    },
    {
      "anonymous": false,
      "inputs": [
        {
          "indexed": true,
          "internalType": "address",
          "name": "to",
          "type": "address"
        },
        {
          "indexed": false,
          "internalType": "uint256",
          "name": "amount",
          "type": "uint256"
        }
      ],
      "name": "MintSuccess",
      "type": "event"
    },
    {
      "anonymous": false,
      "inputs": [
        {
          "indexed": true,
          "internalType": "address",
          "name": "from",
          "type": "address"
        },
        {
          "indexed": true,
          "internalType": "address",
          "name": "to",
          "type": "address"
        },
        {
          "indexed": false,
          "internalType": "uint256",
          "name": "value",
          "type": "uint256"
        }
      ],
      "name": "Transfer",
      "type": "event"
    },
    {
      "inputs": [],
      "name": "INITIAL_SUPPLY",
      "outputs": [
        {
          "internalType": "uint256",
          "name": "",
          "type": "uint256"
        }
      ],
      "stateMutability": "view",
      "type": "function"
    },
    {
      "inputs": [],
      "name": "MAX_SUPPLY",
      "outputs": [
        {
          "internalType": "uint256",
          "name": "",
          "type": "uint256"
        }
      ],
      "stateMutability": "view",
      "type": "function"
    },
    {
      "inputs": [
        {
          "internalType": "address",
          "name": "owner",
          "type": "address"
        },
        {
          "internalType": "address",
          "name": "spender",
          "type": "address"
        }
      ],
      "name": "allowance",
      "outputs": [
        {
          "internalType": "uint256",
          "name": "",
          "type": "uint256"
        }
      ],
      "stateMutability": "view",
      "type": "function"
    },
    {
      "inputs": [
        {
          "internalType": "address",
          "name": "spender",
          "type": "address"
        },
        {
          "internalType": "uint256",
          "name": "amount",
          "type": "uint256"
        }
      ],
      "name": "approve",
      "outputs": [
        {
          "internalType": "bool",
          "name": "",
          "type": "bool"
        }
      ],
      "stateMutability": "nonpayable",
      "type": "function"
    },
    {
      "inputs": [
        {
          "internalType": "address",
          "name": "account",
          "type": "address"
        }
      ],
      "name": "balanceOf",
      "outputs": [
        {
          "internalType": "uint256",
          "name": "",
          "type": "uint256"
        }
      ],
      "stateMutability": "view",
      "type": "function"
    },
    {
      "inputs": [],
      "name": "decimals",
      "outputs": [
        {
          "internalType": "uint8",
          "name": "",
          "type": "uint8"
        }
      ],
      "stateMutability": "pure",
      "type": "function"
    },
    {
      "inputs": [
        {
          "internalType": "address",
          "name": "spender",
          "type": "address"
        },
        {
          "internalType": "uint256",
          "name": "subtractedValue",
          "type": "uint256"
        }
      ],
      "name": "decreaseAllowance",
      "outputs": [
        {
          "internalType": "bool",
          "name": "",
          "type": "bool"
        }
      ],
      "stateMutability": "nonpayable",
      "type": "function"
    },
    {
      "inputs": [
        {
          "internalType": "address",
          "name": "spender",
          "type": "address"
        },
        {
          "internalType": "uint256",
          "name": "addedValue",
          "type": "uint256"
        }
      ],
      "name": "increaseAllowance",
      "outputs": [
        {
          "internalType": "bool",
          "name": "",
          "type": "bool"
        }
      ],
      "stateMutability": "nonpayable",
      "type": "function"
    },
    {
      "inputs": [
        {
          "internalType": "address",
          "name": "to",
          "type": "address"
        },
        {
          "internalType": "uint256",
          "name": "amount",
          "type": "uint256"
        }
      ],
      "name": "mint",
      "outputs": [],
      "stateMutability": "nonpayable",
      "type": "function"
    },
    {
      "inputs": [],
      "name": "name",
      "outputs": [
        {
          "internalType": "string",
          "name": "",
          "type": "string"
        }
      ],
      "stateMutability": "view",
      "type": "function"
    },
    {
      "inputs": [],
      "name": "symbol",
      "outputs": [
        {
          "internalType": "string",
          "name": "",
          "type": "string"
        }
      ],
      "stateMutability": "view",
      "type": "function"
    },
    {
      "inputs": [],
      "name": "totalSupply",
      "outputs": [
        {
          "internalType": "uint256",
          "name": "",
          "type": "uint256"
        }
      ],
      "stateMutability": "view",
      "type": "function"
    },
    {
      "inputs": [
        {
          "internalType": "address",
          "name": "to",
          "type": "address"
        },
        {
          "internalType": "uint256",
          "name": "amount",
          "type": "uint256"
        }
      ],
      "name": "transfer",
      "outputs": [
        {
          "internalType": "bool",
          "name": "",
          "type": "bool"
        }
      ],
      "stateMutability": "nonpayable",
      "type": "function"
    },
    {
      "inputs": [
        {
          "internalType": "address",
          "name": "from",
          "type": "address"
        },
        {
          "internalType": "address",
          "name": "to",
          "type": "address"
        },
        {
          "internalType": "uint256",
          "name": "amount",
          "type": "uint256"
        }
      ],
      "name": "transferFrom",
      "outputs": [
        {
          "internalType": "bool",
          "name": "",
          "type": "bool"
        }
      ],
      "stateMutability": "nonpayable",
      "type": "function"
    }
  ],
  "bytecode": "0x608060405234801561001057600080fd5b506040518060400160405280600f81526020016e2bb930b83832b2102134ba31b7b4b760891b815250604051806040016040528060048152602001635742544360e01b8152508160039081610065919061028e565b506004610072828261028e565b5050506008600a610083919061044b565b610091906301406f40610461565b61009d6008600a61044b565b6100a9906103e8610461565b11156101065760405162461bcd60e51b815260206004820152602160248201527f496e697469616c20737570706c792065786365656473206d617820737570706c6044820152607960f81b60648201526084015b60405180910390fd5b610127336101166008600a61044b565b610122906103e8610461565b61012c565b61048b565b6001600160a01b0382166101825760405162461bcd60e51b815260206004820152601f60248201527f45524332303a206d696e7420746f20746865207a65726f20616464726573730060448201526064016100fd565b80600260008282546101949190610478565b90915550506001600160a01b038216600081815260208181526040808320805486019055518481527fddf252ad1be2c89b69c2b068fc378daa952ba7f163c4a11628f55a4df523b3ef910160405180910390a35050565b505050565b634e487b7160e01b600052604160045260246000fd5b600181811c9082168061021a57607f821691505b60208210810361023a57634e487b7160e01b600052602260045260246000fd5b50919050565b601f8211156101eb57806000526020600020601f840160051c810160208510156102675750805b601f840160051c820191505b818110156102875760008155600101610273565b5050505050565b81516001600160401b038111156102a7576102a76101f0565b6102bb816102b58454610206565b84610240565b6020601f8211600181146102ef57600083156102d75750848201515b600019600385901b1c1916600184901b178455610287565b600084815260208120601f198516915b8281101561031f57878501518255602094850194600190920191016102ff565b508482101561033d5786840151600019600387901b60f8161c191681555b50505050600190811b01905550565b634e487b7160e01b600052601160045260246000fd5b6001815b600184111561039d578085048111156103815761038161034c565b600184161561038f57908102905b60019390931c928002610366565b935093915050565b6000826103b457506001610445565b816103c157506000610445565b81600181146103d757600281146103e1576103fd565b6001915050610445565b60ff8411156103f2576103f261034c565b50506001821b610445565b5060208310610133831016604e8410600b8410161715610420575081810a610445565b61042d6000198484610362565b80600019048211156104415761044161034c565b0290505b92915050565b600061045a60ff8416836103a5565b9392505050565b80820281158282048414176104455761044561034c565b808201808211156104455761044561034c565b610b8f8061049a6000396000f3fe608060405234801561001057600080fd5b50600436106100ea5760003560e01c8063395093511161008c57806395d89b411161006657806395d89b41146101c5578063a457c2d7146101cd578063a9059cbb146101e0578063dd62ed3e146101f357600080fd5b8063395093511461017457806340c10f191461018757806370a082311461019c57600080fd5b806323b872dd116100c857806323b872dd146101425780632ff2e9dc14610155578063313ce5671461015d57806332cb6b0c1461016c57600080fd5b806306fdde03146100ef578063095ea7b31461010d57806318160ddd14610130575b600080fd5b6100f7610206565b60405161010491906108c3565b60405180910390f35b61012061011b36600461092d565b610298565b6040519015158152602001610104565b6002545b604051908152602001610104565b610120610150366004610957565b6102b2565b6101346102d6565b60405160088152602001610104565b6101346102f1565b61012061018236600461092d565b61030b565b61019a61019536600461092d565b61032d565b005b6101346101aa366004610994565b6001600160a01b031660009081526020819052604090205490565b6100f76103ff565b6101206101db36600461092d565b61040e565b6101206101ee36600461092d565b610489565b6101346102013660046109b6565b610497565b606060038054610215906109e9565b80601f0160208091040260200160405190810160405280929190818152602001828054610241906109e9565b801561028e5780601f106102635761010080835404028352916020019161028e565b820191906000526020600020905b81548152906001019060200180831161027157829003601f168201915b5050505050905090565b6000336102a68185856104c2565b60019150505b92915050565b6000336102c08582856105e6565b6102cb858585610660565b506001949350505050565b6102e26008600a610b20565b6102ee906103e8610b2f565b81565b6102fd6008600a610b20565b6102ee906301406f40610b2f565b6000336102a681858561031e8383610497565b6103289190610b46565b6104c2565b6103396008600a610b20565b610347906301406f40610b2f565b8161035160025490565b61035b9190610b46565b11156103ae5760405162461bcd60e51b815260206004820152601a60248201527f4d696e74696e672065786365656473206d617820737570706c7900000000000060448201526064015b60405180910390fd5b6103b88282610804565b816001600160a01b03167fcda531bfd68624f13205c0a23cd4d5a7f09792cbb399603114f2b04aaa1bf5cf826040516103f391815260200190565b60405180910390a25050565b606060048054610215906109e9565b6000338161041c8286610497565b90508381101561047c5760405162461bcd60e51b815260206004820152602560248201527f45524332303a2064656372656173656420616c6c6f77616e63652062656c6f77604482015264207a65726f60d81b60648201526084016103a5565b6102cb82868684036104c2565b6000336102a6818585610660565b6001600160a01b03918216600090815260016020908152604080832093909416825291909152205490565b6001600160a01b0383166105245760405162461bcd60e51b8152602060048201526024808201527f45524332303a20617070726f76652066726f6d20746865207a65726f206164646044820152637265737360e01b60648201526084016103a5565b6001600160a01b0382166105855760405162461bcd60e51b815260206004820152602260248201527f45524332303a20617070726f766520746f20746865207a65726f206164647265604482015261737360f01b60648201526084016103a5565b6001600160a01b0383811660008181526001602090815260408083209487168084529482529182902085905590518481527f8c5be1e5ebec7d5bd14f71427d1e84f3dd0314c0f7b2291e5b200ac8c7c3b925910160405180910390a3505050565b60006105f28484610497565b9050600019811461065a578181101561064d5760405162461bcd60e51b815260206004820152601d60248201527f45524332303a20696e73756666696369656e7420616c6c6f77616e636500000060448201526064016103a5565b61065a84848484036104c2565b50505050565b6001600160a01b0383166106c45760405162461bcd60e51b815260206004820152602560248201527f45524332303a207472616e736665722066726f6d20746865207a65726f206164604482015264647265737360d81b60648201526084016103a5565b6001600160a01b0382166107265760405162461bcd60e51b815260206004820152602360248201527f45524332303a207472616e7366657220746f20746865207a65726f206164647260448201526265737360e81b60648201526084016103a5565b6001600160a01b0383166000908152602081905260409020548181101561079e5760405162461bcd60e51b815260206004820152602660248201527f45524332303a207472616e7366657220616d6f756e7420657863656564732062604482015265616c616e636560d01b60648201526084016103a5565b6001600160a01b03848116600081815260208181526040808320878703905593871680835291849020805487019055925185815290927fddf252ad1be2c89b69c2b068fc378daa952ba7f163c4a11628f55a4df523b3ef910160405180910390a361065a565b6001600160a01b03821661085a5760405162461bcd60e51b815260206004820152601f60248201527f45524332303a206d696e7420746f20746865207a65726f20616464726573730060448201526064016103a5565b806002600082825461086c9190610b46565b90915550506001600160a01b038216600081815260208181526040808320805486019055518481527fddf252ad1be2c89b69c2b068fc378daa952ba7f163c4a11628f55a4df523b3ef910160405180910390a35050565b602081526000825180602084015260005b818110156108f157602081860181015160408684010152016108d4565b506000604082850101526040601f19601f83011684010191505092915050565b80356001600160a01b038116811461092857600080fd5b919050565b6000806040838503121561094057600080fd5b61094983610911565b946020939093013593505050565b60008060006060848603121561096c57600080fd5b61097584610911565b925061098360208501610911565b929592945050506040919091013590565b6000602082840312156109a657600080fd5b6109af82610911565b9392505050565b600080604083850312156109c957600080fd5b6109d283610911565b91506109e060208401610911565b90509250929050565b600181811c908216806109fd57607f821691505b602082108103610a1d57634e487b7160e01b600052602260045260246000fd5b50919050565b634e487b7160e01b600052601160045260246000fd5b6001815b6001841115610a7457808504811115610a5857610a58610a23565b6001841615610a6657908102905b60019390931c928002610a3d565b935093915050565b600082610a8b575060016102ac565b81610a98575060006102ac565b8160018114610aae5760028114610ab857610ad4565b60019150506102ac565b60ff841115610ac957610ac9610a23565b50506001821b6102ac565b5060208310610133831016604e8410600b8410161715610af7575081810a6102ac565b610b046000198484610a39565b8060001904821115610b1857610b18610a23565b029392505050565b60006109af60ff841683610a7c565b80820281158282048414176102ac576102ac610a23565b808201808211156102ac576102ac610a2356fea2646970667358221220ed655505c656edb02f99c607e45f2fbfbc7bb1b4d2f85cb5a41ba5c7ceaf3be364736f6c634300081b0033",
  "linkReferences": {},
  "deployedLinkReferences": {}
}